:020000040800F2
:10000000B8090020C101000859150008FD120008B8
:10001000C1140008A9090008CF370008000000003B
:100020000000000000000000000000006D29000832
:10003000EF0C000800000000DD180008A92B0008E4
:10004000DB010008DB010008DB010008DB01000820
:10005000DB010008DB010008DB010008DB01000810
:10006000DB010008DB010008DB010008DB01000800
:10007000DB010008DB010008DB010008DB010008F0
:10008000DB010008DB010008DB010008DB010008E0
:10009000DB010008DB010008DB010008DB010008D0
:1000A000DB010008DB010008DB010008DB010008C0
:1000B000152C0008692D0008ED2E0008DB01000852
:1000C000DB010008DB010008DB010008DB010008A0
:1000D000DB010008DB01000879320008D933000891
:1000E000810D0008DB010008DB010008DB010008CE
:1000F000DB010008DB010008DB010008DB01000870
:10010000DB010008DB010008DB010008DB0100085F
:10011000DB010008DB010008DB010008DB0100084F
:10012000DB010008DB010008DB010008DB0100083F
:10013000DB010008DB010008DB010008DB0100082F
:10014000DB010008DB010008DB010008DB0100081F
:10015000DB010008DB010008DB010008DB0100080F
:10016000DB010008DB010008DB010008DB010008FF
:10017000DB010008DB010008DB010008DB010008EF
:10018000DB010008DB010008DB010008DB010008DF
:10019000DB010008DB010008DB010008DB010008CF
:1001A000DB010008DB010008DB010008DFF80CD0F0
:1001B00000F096FA00480047C1420008B809002044
:1001C0000648804706480047FEE7FEE7FEE7FEE7F1
:1001D000FEE7FEE7FEE7FEE7FEE7FEE7AD2B0008E1
:1001E000AD0100082DE9FE4F804681EA0300C00FF3
:1001F0000C46009021F0004123F00045B8EB0200CE
:10020000A94105D24046214690461C460B4602466F
:1002100023F00040104347D0270DC7F30A00C3F373
:100220000A510290401A019040286BDAC3F3130080
:1002300040F4801B0098924620B10023D2EB030AC1
:1002400063EB0B0B01985946C0F14002504600F099
:10025000B9F906460D4650465946019A00F0D1F9C3
:1002600010EB08006141002487EA115284EAE77329
:100270001A4340D0009A62B3019A012A4FEA07520A
:1002800015DC001B61EB02014FF0004202EA07524D
:10029000CDE90042001C41F5801132462B4600F0AA
:1002A000D1F903B0BDE8F08F40462146F9E7001BC5
:1002B00061EB0201001C41F5801300185B4120181E
:1002C000A2F5001747EB030140EAD570B6196D415E
:1002D00011E06D084FEA360645EAC0754FEA07524D
:1002E000001B61EB0201001C41F5801149084FEA37
:1002F00030000019514132462B4603B0BDE8F04FA3
:1003000000F091B90098012240000023D0EB0202D6
:1003100063EBE073009821464FEAE074B8EB00000D
:1003200061EB0401E9E783F000435BE781F0004102
:1003300058E72DE9FE4F81EA030404F0004421F060
:10034000004100944FF0000B23F0004350EA0104F9
:100350005ED052EA03045BD0C3F30A54C1F30A55DA
:100360002C44A4F2F3340194A0FB0254C1F3130112
:1003700041F48011C3F3130343F4801301FB0244DF
:1003800000FB034E840A970A44EA815447EA8357E4
:10039000A4FB076802958D0A05FB07854FEA932C9D
:1003A00004FB0C542705029D4FEA065847EA16370E
:1003B000B5EB08056EEB070C870E920E47EA811726
:1003C00042EA8312A7FB0201B6EB0B0164EB0004C7
:1003D0002B0D43EA0C335E1844EB1C50DA465146B1
:1003E000E7FB0201C5F313044FEA0B3343EA14534E
:1003F0004FEA0432019C43EA0603A4F10C04029480
:10040000009CCDE900B400F01DF903B0BDE8F08F09
:1004100000200146F9E72DE9F04D81EA030404F0DC
:10042000004B21F0004514464FF0000A23F0004134
:1004300050EA050220D054EA01021DD0C5F30A5744
:100440000246C5F31303C1F31300C1F30A5640F487
:10045000801543F48013A7EB0608101BD64608F25C
:10046000FD3873EB050002D308F1010801E0921892
:100470005B41B8F1000F03DA00200146BDE8F08DC2
:1004800000204FF48011064684460EE0171B73EBE4
:10049000050705D3121B63EB050306434CEA010C69
:1004A00049084FEA300092185B4150EA0107EDD14C
:1004B00052EA030012D082EA040083EA05010843ED
:1004C00005D0101BAB4106D20122002306E000221A
:1004D0004FF0004302E06FF0010253101AEB0600E8
:1004E0004CEB085110EB0A0041EB0B01BDE8F04D5D
:1004F00000F099B80EB5C10F80EAE0700844CA0751
:10050000002140F233438DE80E000A460B4600F00E
:1005100099F803B000BD0EB540F2334102910021BD
:10052000CDE900110A460B4600F08CF803B000BD7F
:10053000C1F30A5210B5C1F3130140F2FF3341F485
:1005400080119A4201DA002010BD40F233439A42F2
:10055000A2F2334203DC524200F043F810BD904057
:1005600010BD2DE9F05F0546002092469B46884667
:100570000646814640241BE028464146474622461F
:1005800000F02FF853465A46C01A914110D3114635
:100590001846224600F016F82D1A67EB01084F4660
:1005A00022460120002100F00DF817EB00094E4112
:1005B000201EA4F10104DFDC484631462A464346AA
:1005C000BDE8F09F202A04DB203A00FA02F1002067
:1005D00070479140C2F1200320FA03F31943904081
:1005E0007047202A04DB203A21FA02F000217047EC
:1005F00021FA02F3D040C2F120029140084319468B
:100600007047202A06DBCB17203A41FA02F043EA72
:10061000E07306E041FA02F3D040C2F120029140BB
:1006200008431946704710B5141E73F1000408DA28
:10063000401C41F1000192185B411A4301D120F0A6
:10064000010010BD2DE9F04D92469B4611B1B1FA63
:1006500081F202E0B0FA80F220329046FFF7B2FF5A
:1006600004460F4640EA0A0041EA0B0153465A4647
:10067000084313D0114653EA010019D0C8F14002D3
:100680005046FFF7AEFF05460E46504659464246D5
:10069000FFF798FF084305D0012004E020463946C3
:1006A000BDE8F08D0020054346EAE0762C43374351
:1006B0000A986305E40AA0EB08000022FD0A44EA58
:1006C00047540A3002D500200146E9E70105101918
:1006D0006941DDE9084500196941BDE8F04DA2E72F
:1006E000064C074D06E0E06840F0010394E807007F
:1006F00098471034AC42F6D3FFF75CFD6048000821
:100700008048000830B58C1810F8012B12F00F0348
:1007100001D110F8013B120906D110F8012B03E0BA
:1007200010F8015B01F8015B5B1EF9D101E001F8F3
:10073000013B521EFBD1A142E6D3002030BD000098
:1007400000B58BB00121880201F070FA0121880206
:1007500001F07CFA00214FF4806001F077FA00206C
:1007600007900A9009904FF48030089007A800F095
:1007700025F8002001908DF808008DF809000390FD
:100780000490059001208DF8180001A9044800F09C
:1007900051F80121024800F005F80BB000BD00003F
:1007A0000022014021B1826842F00102826003E030
:1007B000826822F001028260704700000021084A2E
:1007C0001168084A1140D0E900231A4383681A438C
:1007D000C3681A431143044AC2F804137047000067
:1007E00004230140E030FCFF0020014021B1826879
:1007F00042F48072826003E0826822F48072826038
:10080000704721B1826842F40072826003E082681E
:1008100022F40072826070470146C86C80B2704753
:100820000246002013680B400BB1012000E00020BD
:100830007047000030B50246002000235068104C7D
:1008400020400D790C6844EA0524204350609068EC
:100850000C4C2040D1E903542C438D682C434D7936
:1008600044EA450420439060D06A20F470000C7D77
:10087000641EE4B2234340EA0350D06230BD00005E
:10088000FFFEFFFCFDF7FFC0F0B504460D4600205B
:100890000021092D11DDE068A5F10A0606EB4607E7
:1008A000072606FA07F18843A5F10A0606EB460675
:1008B00003FA06F10843E0600CE0206905EB450708
:1008C000072606FA07F1884305EB450603FA06F109
:1008D00008432061072A0FDA606B561E06EB860775
:1008E0001F2606FA07F18843561E06EB860605FA10
:1008F00006F10843606322E00D2A0FDA206BD61F51
:1009000006EB86071F2606FA07F18843D61F06EB7B
:10091000860605FA06F10843206310E0E06AA2F1BA
:100920000D0606EB86071F2606FA07F18843A2F19B
:100930000D0606EB860605FA06F10843E062F0BDF7
:10094000816841F0804181607047000001200F49BB
:1009500008600F49C1F8A0020E49086000200E4946
:1009600008600C49183108600C49C88101200C4905
:1009700008600849143108600020091F0860091F39
:1009800008600849C1F88C0270470000A402414287
:1009900000004042880243429482434268030020A0
:1009A000BC8242420080434200BFFEE70146092963
:1009B00042D2DFE801F0050B12191F262D343B004F
:1009C0001F480068012800D1704736E01C48001F0E
:1009D0000068012800D1F7E72FE0194808380068BF
:1009E000012800D1F0E728E016480068012800D16E
:1009F000EAE722E013480C380068012800D1E3E759
:100A00001BE0104810380068012800D1DCE714E032
:100A10000C4814380068012800D1D5E70DE00948DA
:100A200018380068012800D1CEE706E006480068C3
:100A3000012800D1C8E700E000BF00BF0020C3E7E5
:100A4000148240423C0243421C8241420246094B0E
:100A50009A4201D2084801E00648103801F00053DC
:100A60001BB1064B0B40C36002E0044B0B4083609C
:100A70007047000010640240006002407D0F7D0F4F
:100A800021B1026842F00102026003E0026822F034
:100A90000102026070470000016821F0010101605D
:100AA0000021016041608160C160016121214161DB
:100AB0004A49884204D13D21484A103A91608CE06D
:100AC00046491831884205D14FF47461434A103ABF
:100AD000916082E041493031884205D14FF4741170
:100AE0003E4A103A916078E03C494831884205D14D
:100AF0004FF07461394A103A91606EE037496031C5
:100B0000884204D13649354A103AD16065E033490C
:100B10007831884204D13349304A103AD1605CE0E0
:100B20002E499031884204D12F492C4A103AD16085
:100B300053E02A49A831884205D14FF03D51274A58
:100B4000103AD16049E02949884204D13D21274A21
:100B5000083A116041E025491831884205D14FF427
:100B60007461224A083A116037E0204930318842E6
:100B700005D14FF474111D4A083A11602DE01B494C
:100B80004831884205D14FF07461184A083A116023
:100B900023E016496031884204D11149134A121FDB
:100BA00011601AE011497831884204D10D490F4A89
:100BB000121F116011E00D499031884204D10A4999
:100BC0000A4A121F116008E00849A831884204D17E
:100BD0004FF03D51054A121F1160704710600240EE
:100BE0003D000020400F002000003D201064024026
:100BF00070B504460D4600212046FFF741FF00BFB7
:100C0000204600F00BF80028FAD12946204600F0D3
:100C10005DF801212046FFF733FF70BD014600203B
:100C20000A6802F001020AB1012000E000207047CA
:100C300030B503460A46002000240B4DAB4201D2DA
:100C40000A4901E00849103902F000550DB14C681D
:100C500000E00C68064D2C4004EA02050DB10120AD
:100C600000E0002030BD000010640240006002403F
:100C70007D0F7D0F10B500220268134B1A40CC681F
:100C80000B6823434C6923438C692343CC6923437A
:100C90000C6A23434C6A23438C6A23434C6B2343E3
:100CA0008C6B23431A430260426922F00702D1E9A8
:100CB0000B3423431A4342610B6943604B688360E2
:100CC0008B68C36010BD00003F801CF0416070471E
:100CD00030B503460020144600BF05E034F810503C
:100CE00023F81050451CE8B28842F7DB30BD70474E
:100CF00010B50024102200211D4803F048F900BF60
:100D000006E01B4830F814101AA002F063FD641CC2
:100D1000082CF6DB1648008845F2AA51884216D105
:100D200013484088154948821148808888831048B4
:100D3000C08888820E480089C8820D48408908838F
:100D40000B48808948830A48C089C8830FE041F274
:100D500094100A494882FF2088832D208882C88207
:100D600041F294100883BB2048835A20C88310BDE9
:100D70007205002020253034580000006803002050
:100D800010B54FF4804000F0B1F800283DD04FF48A
:100D9000804000F08DF840480088401C3E490880A3
:100DA00000203E4908603E480068B0F57A7F2CD9A3
:100DB00000203B49086038480088C0EB401101EB37
:100DC0008010384908820020334908803548008A5D
:100DD0003449498A884215DC33480088401C32492E
:100DE00008800846008802280FDD30480068012886
:100DF0000BD12C48C08C40F400502A49C884FFF71E
:100E0000A5FD02E00020284908804FF4004000F0D2
:100E10006DF800283ED04FF4004000F049F81E481D
:100E20004088401C1C49488000201C4948601C48E0
:100E30004068B0F57A7F2DD90020194948601648DE
:100E40004088C0EB401101EB801016490885002056
:100E5000114948801348008D1249098B884216DCDD
:100E600011484088401C10494880084640880228A4
:100E700010DD0E48001D006801280BD10948C08C08
:100E800040F480400749C884FFF760FD02E000207D
:100E90000549488010BD0000240000203C000020CF
:100EA000340000206803002028000020080242428D
:100EB0000149086070470000143C01401CB5012145
:100EC000802000F093FE4FF44040009000208DF809
:100ED000040003208DF8050002208DF80700694604
:100EE000014800F059F81CBD001C024001460020DA
:100EF000034A12680A400AB1012000E0002070474E
:100F0000143C0140002123498279002A3AD00A4644
:100F1000126803689A430B461A600A1D1268036838
:100F20009A430B1D1A60027911440A6803681A4338
:100F30000A60184A0832126803689A43154B08334E
:100F40001A601A1D126803689A43124B0C331A6018
:100F50004279102A0ED11A1F126803681A430D4BEA
:100F600008331A601A1D126803681A43094B0C33C0
:100F70001A600DE00749427911440A6803681A4370
:100F80000A6005E0027911440A6803689A430A601E
:100F900070470000003C0140F0B50A4600210023E4
:100FA000002400BF3DE0012505FA01F3156805EABC
:100FB00003049C4234D105684F000326BE40B5436C
:100FC000056015794E00B540066835430560157912
:100FD000012D02D01579022D16D185684F00032608
:100FE000BE40B543856055794E00B54086683543AF
:100FF0008560456801268E40B54345604568967911
:101000008E40B6B235434560C5684F000326BE40EA
:10101000B543C560D5794E00B540C6683543C56057
:10102000491C1029BFD3F0BDF0B5002300244D07A3
:10103000ED0E02FA05F3CE1000F1200555F826500A
:101040004E07F70E0F26BE40B543CF1000F1200625
:1010500046F82750CE1000F1200555F8265045EAF5
:101060000304CE1000F1200545F82640F0BD000035
:1010700010B52648007800F0010018B1012024497D
:10108000086002E00020224908602048007800F053
:10109000020018B101201F49086002E000201D492C
:1010A00008601A48007800F0040020B101201949B6
:1010B000091D086003E000201649091D086003208F
:1010C00002F028FF052000F029F813490F4A127892
:1010D00041F82200022002F01DFF062000F01EF859
:1010E0000D4A0A490978083142F82100074800787A
:1010F000401C064908700878C11700EB5171C910EF
:10110000A0EBC101014A117010BD00008800002051
:10111000B0024142808241422803002010B50446BB
:101120000723012221460848FFF7AEFB0648FFF7D8
:1011300007FC00BF02210448FFF772FB0028F9D02A
:101140000148FFF769FB10BD002201406348C08CD5
:1011500000286FD161484088002840D15F48C0898D
:10116000D8B901205E4908605E49C1F898020020A4
:101170005D4908605B49C1F89C025C480068DD2855
:1011800007D15648408BAA2803D10020584908604F
:10119000A2E00120564908609EE0504880880A2855
:1011A000F6DB4E48C0890128F2D15248007800F0A1
:1011B00004000028ECD04948808B0028E8DD00209E
:1011C0004749086001204749C1F894020020464978
:1011D000091D0860091D0860454908607CE0454814
:1011E000007800F00400D0B343480068B0F57A6F8F
:1011F00021D941F28830404908600120384908600F
:101200003849C1F898020020374908603549C1F8CB
:101210009C02354894380068012807D12F48408B3C
:10122000AA2803D100203249086055E00120304946
:10123000086051E031E02948808B00284CDD002017
:101240002749086001202749C1F894020020264957
:10125000091D0860091D0860254908603CE0FFE79A
:1012600001201F4908601F49C1F8980200201E494B
:1012700008601C49C1F89C021B489438006801288A
:1012800007D11648408BAA2803D1002018490860CE
:1012900022E00120164908601EE01048408838B955
:1012A0000E48408BAA2803D110480068DD280CD0D6
:1012B0000A48408800280CDD0848408BAA2808D13D
:1012C000094894380068012803D1002008490860C3
:1012D00002E0012006490860704700006803002012
:1012E000A40241420000434294024342B000002065
:1012F0008402424230000020AC00002000BFFEE724
:101300001CB50121482000F071FC01208DF804007B
:1013100000208DF8060001208DF8070002208DF8CE
:1013200005000420009069460C48FFF735FE4FF495
:101330000040009069460A48FFF72EFE4FF48040B7
:10134000009069460648FFF727FE4FF400500090D2
:1013500069460348FFF720FE1CBD0000001802404C
:10136000000C02400146082938D2DFE801F0040AE7
:1013700010161D232A301B48006808B90120704749
:101380002DE01948006808B90120F8E727E0174860
:10139000006808B90120F2E721E01448001F006846
:1013A00008B90120EBE71AE01148006808B90120EC
:1013B000E5E714E00D481038006808B90120DEE7C1
:1013C0000DE00C48006808B90120D8E707E009489B
:1013D000001F006808B90120D1E700E000BF00BF8E
:1013E0000020CCE7008240422C8242421002404260
:1013F0000C0241421402444210B52948007840B121
:10140000552028498872AA20C872002024490870F3
:1014100026E0FE2023490870EF2048702248234927
:10142000097810F821001F4988700320C870FF2038
:1014300008713C2048711E48808BC88000200872CB
:10144000487255208872AA20C87218480078401C3B
:101450001649087008460078082801DB002008704B
:10146000012014490860002240F22551124802F080
:1014700016F9012240F226610F4802F010F94FF0F0
:10148000C0510E48FFF7D4FB20B14FF0C0510B48BC
:10149000FFF7DCFA0C210948FFF7AAFB10BD00009A
:1014A00089000020940100208C0000208B00002087
:1014B00068030020BC0240420048004058600240DF
:1014C00000BFFEE70146082939D2DFE801F0040A2F
:1014D00011171D232A311C480068012800D17047CC
:1014E0002EE01948001F0068012800D1F7E727E027
:1014F00016480068012800D1F1E721E0144800688F
:10150000012800D1EBE71BE012480068012800D158
:10151000E5E715E00F48001F0068012800D1DEE76D
:101520000EE00B480C380068012800D1D7E707E02F
:10153000074810380068012800D1D0E700E000BF5C
:1015400000BF0020CBE7000034824242000241424B
:1015500028024442180242427047000070B5002140
:1015600000230F22C4781CB3174C246804F4E064F1
:10157000C4F5E064C4F30721C1F10404E3B20A41F5
:1015800044789C40E1B28478144021430C07210E3A
:101590000E4C05786155047804F01F050124AC4019
:1015A00005786D11AD0005F1E025C5F8004109E0B1
:1015B000047804F01F050124AC40054D067876112F
:1015C00045F8264070BD00000CED00E000E400E0AE
:1015D00080E100E002490143024A116070470000C7
:1015E0000000FA050CED00E01CB50121022000F01E
:1015F000FDFA4FF44070009001208DF804000020A7
:101600008DF8060001208DF8070002208DF80500F6
:1016100069460548FFF7C0FC0120044908600449F9
:10162000C1F8A0021CBD000000040240A482404298
:10163000008040422DE9F8430446894600250020F9
:10164000009000260027E07803287DD1A078FE28AE
:101650003BD193484088012807D192480068642113
:101660004843C0F30F308E4988808F4840798F49B6
:1016700008708D48007948708B48807988708A4856
:10168000C079C8708848007A08718748407A4871E4
:10169000854890F8098008EBD8704110804A83484B
:1016A000801DFFF715FB6079801DC5B245F2AA5079
:1016B00000909DF801007D4948559DF800107B4A37
:1016C000681C1154A81CC5B241E0012607E0A078AF
:1016D000B04202D1701EC7B203E0701CC6B2082E21
:1016E000F5DD00BF70484079704908706E48007998
:1016F00048706D48807988706B48C079C8706A48B6
:10170000007A08716848407A4871674890F8098003
:1017100008EBD8704110C7EB0710654B03EB800254
:101720006248801DFFF7D4FA6079801DC5B245F28A
:10173000AA5000909DF801005C4948559DF80010A2
:101740005A4A681C115400E00FE0A81CC5B2594960
:101750005948FFF76DFA18B156495748FFF776F91F
:1017600029465548FFF744FA98E0E0780628FBD16F
:1017700060790428F8D1A078FE2876D120790C2849
:1017800071D2DFE800F070060C7013464D545B70A8
:101790006269A068012801D14849087064E0208985
:1017A0003F4988830220454908705DE020893C4913
:1017B000C8810846C089012815D1084680880928B3
:1017C00011DD0846408870B93D48007800F00400FB
:1017D00048B101203B4908603B49C1F888023949BA
:1017E0000839086014E000202D49C8813448006899
:1017F00020F0040032490860002034490860324972
:10180000C1F894022F490C3908602F49C1F88C02A5
:101810002AE020892249488202202849087023E0D2
:1018200020891F4908830220244908701CE0208970
:101830001B49888202202149087015E02089184937
:10184000C88202201D4908700EE02089144948838F
:1018500002201A49087007E0208980B21C490860FC
:1018600002E002E0FFE700BF18E00120194908701C
:101870000D484079184908700B48007948700A48AB
:10188000807988700848C079C8700748007A087164
:101890000548407A487104488089C880BDE8F883CB
:1018A0006803002084000020F402002030010020A2
:1018B0009203002000002020A06002408A00002047
:1018C000300000209482434200804342A002434201
:1018D000B000002089000020940100207047000023
:1018E0001CB50121222000F081F902200090032084
:1018F0008DF8040000208DF8070069460448FFF7C2
:101900004BFB0820009069460248FFF745FB1CBDD1
:10191000000402400014024010B5FFF7E1FF00F0A0
:1019200001F810BD00B599B00121880500F05EF9FD
:1019300030480B9030480C9000200D9001200E9004
:1019400000200F9010904FF40060119080001290D2
:101950004011139040021490002015900120169021
:101960000020179018900A900AA92448FFF782F9DE
:1019700001212248FFF784F80121080200F056F9FE
:10198000002004908DF8140001208DF8150000202F
:1019900006900790089001208DF8240004A91548AE
:1019A0004C38FEF747FF00200090019002904FF462
:1019B000706003906846FEF701FF032301220921AE
:1019C0000C484C38FEF760FF01210A484C38FEF7FE
:1019D00018FF012107484C38FEF708FF0121054890
:1019E0004C38FEF7DFFE03484C38FEF7A9FF19B06C
:1019F00000BD00004C200140840000201064024023
:101A00001CB50121DD2000F0F1F801208DF8040063
:101A100000208DF8060001208DF8070002208DF8C7
:101A200005001020009069466948FFF7B5FA4FF4A9
:101A30000070009069466748FFF7AEFA4FF4807077
:101A4000009069466448FFF7A7FA80200090694635
:101A50006248FFF7A1FA4020009069465F48FFF70F
:101A60009BFA2020009069465C48FFF795FA4FF4F6
:101A70008070009069465948FFF78EFA4FF4C060B5
:101A8000009069465448FFF787FA4FF48050009061
:101A900069465348FFF780FA4FF4F85000906946C2
:101AA0005048FFF779FA4FF40040009069464E48DD
:101AB000FFF772FA2020009069464948FFF76CFA58
:101AC0000820009069464648FFF766FA0420009017
:101AD00069464348FFF760FA102000906946404885
:101AE000FFF75AFA0220009069463948FFF754FA86
:101AF00000208DF8040001208DF8070003208DF8E8
:101B000005004FF40050009069463548FFF744FA4D
:101B10004020009069463248FFF73EFA4FF480704B
:101B2000009069462E48FFF737FA4FF48060009026
:101B300069462B48FFF730FA4FF400600090694681
:101B40002748FFF729FA0420009069462048FFF74C
:101B500023FA0820009069461D48FFF71DFA00206F
:101B60008DF8040002208DF8070003208DF8050091
:101B70008020009069461A48FFF70EFA4FF4007073
:101B8000009069461648FFF707FA01200090694661
:101B90001248FFF701FA0220009069460F48FFF74C
:101BA000FBF94FF40060009069460948FFF7F4F92B
:101BB0004FF48050009069460548FFF7EDF94FF467
:101BC0008070009069460248FFF7E6F91CBD0000EE
:101BD00000100240000802400000024000180240CD
:101BE000001C0240000C02400014024029B1064AC9
:101BF00012680243044B1A6004E0034A12688243ED
:101C0000014B1A60704700003038024029B1064A83
:101C100012680243044B1A6004E0034A12688243CC
:101C2000014B1A60704700004038024029B1064A53
:101C300012680243044B1A6004E0034A12688243AC
:101C4000014B1A60704700004438024029B1064A2F
:101C500012680243044B1A6004E0034A126882438C
:101C6000014B1A607047000024380240F0B5002193
:101C700000220024022500260223324F3F6807F08D
:101C80000C0121B1042905D0082937D105E02E4FD8
:101C9000076036E02D4F076033E02A4F3F1F3F6853
:101CA000C7F38056274F3F1F3F6807F03F036EB1D1
:101CB000264FB7FBF3F7DFF88CC0ACF1040CDCF86F
:101CC00000C0CCF3881C07FB0CF40CE01E4FB7FBE4
:101CD000F3F7DFF870C0ACF1040CDCF800C0CCF313
:101CE000881C07FB0CF4174F3F1F3F68C7F30147E1
:101CF0007F1C7D00B4FBF5F7076002E0124F076020
:101D000000BF00BF0F4F3F6807F0F0010909104FF7
:101D10007A5C0768D74047600A4F3F6807F4E05194
:101D2000890A0B4F7A5C4768D7408760054F3F6848
:101D300007F46041490B064F7A5C4768D740C7609B
:101D4000F0BD0000083802400024F40040787D0116
:101D50000000002000B597B001210820FFF746FFE2
:101D600001214804FFF752FF01214805FFF73EFF1C
:101D700000208DF85A0001208DF85B0002208DF8BC
:101D800059008DF858002020159015A93B48FFF701
:101D900003F902208DF858004020159015A9374806
:101DA000FFF7FAF8072206213448FFF73DF907222A
:101DB00005213248FFF738F94FF4E1301190002047
:101DC000ADF84800ADF84A00ADF84C00ADF8500051
:101DD0000C20ADF84E0011A9294801F085FC012125
:101DE000274801F010FC012240F22551244801F05F
:101DF00056FC26208DF8400001208DF841008DF81A
:101E000042008DF8430010A8FFF7A8FB1D48FEF71D
:101E100043FE00BF1B48FEF701FF0028FAD14FF038
:101E2000006001901648001D029017480390402062
:101E300004900F200590002006904FF480600790DA
:101E40000020089009900A904FF480300B900020F9
:101E50000C9003200D9000200E900F9001A90948CE
:101E6000FEF708FF01210748FEF70AFE00BF0548FC
:101E7000FEF7D4FE0128FAD117B000BD000C0240D5
:101E800000440040A06002403001002070B50546CB
:101E900000201C4600BF05E032F8106024F81060F6
:101EA000461CF0B28842F7DB70BD000000B597B069
:101EB00001210420FFF79AFE01218804FFF7A6FE06
:101EC00001214805FFF792FE01210846FFF78EFE2B
:101ED00000208DF85A0001208DF85B0002208DF85B
:101EE000590001208DF85800C003159015A94548E8
:101EF000FFF752F802208DF858004002159015A9FE
:101F00004148FFF749F802208DF8580080021590EB
:101F100015A93D48FFF740F807220B213A48FFF783
:101F200083F807220A213848FFF77EF84FF4E130A2
:101F300011900020ADF84800ADF84A00ADF84C0013
:101F4000ADF850000C20ADF84E0011A92F4801F05B
:101F5000CBFB01212D4801F056FB012240F2255117
:101F60002A4801F09CFB002240F22661274801F03C
:101F700096FB27208DF8400001208DF841008DF858
:101F800042008DF8430010A8FFF7E8FA2048FEF75A
:101F900083FD00BF1E48FEF741FE0028FAD14FF036
:101FA000006001901948001D02901A4803904020DB
:101FB00004900F200590002006904FF48060079059
:101FC0000020089009900A904FF480300B90002078
:101FD0000C9003200D9000200E900F9001A90C484A
:101FE000FEF748FE01210A48FEF74AFD00BF0848F7
:101FF000FEF714FE0128FAD100200749086017B047
:1020000000BD0000000002400008024000480040FF
:102010005860024094010020BC0240422DE9F04784
:102020002DED108B04460D4617469946C4F30D045A
:10203000C5F30B0540F67D70844203DDA4F67D7088
:1020400084B200E0002405FB05F0FEF753FA41ECF2
:102050001C0B9FED380B53EC102BFEF76AF941EC8B
:102060001B0B9FED360B53EC102BFEF7D4F941EC14
:10207000190B2846FEF74FFA41EC1C0B9FED310B74
:1020800053EC102BFEF755F941EC1B0B9FED2F0B7A
:1020900053EC102BFEF747F941EC1A0B53EC192BBC
:1020A000FEF741F941EC180BFEF742FA804628464C
:1020B000FEF731FA41EC1F0B9FED260B53EC102B72
:1020C000FEF737F941EC1E0B9FED240B53EC102B60
:1020D000FEF7A1F941EC1D0B9FED220B53EC102BE9
:1020E000FEF780F841EC1B0BA4F6C410FEF702FAD1
:1020F00041EC1C0B53EC1B2BFEF71BF941EC190BAD
:102100004046FEF708FA41EC1A0B53EC192BFEF788
:1021100069F841EC180BFEF70BFA064642F20F7114
:102120008E4200D90E46C9F800603C60BDEC108BB1
:10213000BDE8F0879A9999999999F93F00000000B4
:102140000088C3405C8FC2F5285C0D40F6285C8F88
:10215000C2956940F168E388B5F8143F00000000BB
:10216000000059407B14AE47E17A843F10B500F07F
:102170005DF801200E49086000200E49C1F8840274
:1021800000240FE001200A49091D0860022001F027
:10219000CDFE00200749C1F88402022001F0C6FEEE
:1021A000601CC4B2092CEDDB00F06CFB10BD00001C
:1021B00080824242008042421CB501212020FFF76C
:1021C00015FD01208DF8040000208DF80600012087
:1021D0008DF8070002208DF8050001200090694667
:1021E0000848FEF7D9FE0220009069460548FEF730
:1021F000D3FE322001F08EFEFFF7B8FF142001F06D
:1022000089FE1CBD001402401CB501200090002076
:102210008DF804008DF8070003208DF8050069464D
:102220000148FEF7B9FE1CBD001402401CB5012098
:102230008DF8040000208DF8060001208DF80700BD
:1022400002208DF805000120009069460148FEF744
:10225000A3FE1CBD001402407CB5054600240020EE
:1022600001900026012201A9684600F08DFA204461
:10227000C4B21CB10124FFF779FF09E0054B064AFF
:10228000BDF800103046FFF7C9FE0248006828601C
:1022900020467CBD18000020140000207CB50546B7
:1022A0000024002001900026002201A9684600F0C9
:1022B0006BFA2044C4B21CB10124FFF757FF09E0B8
:1022C000054B064A3146BDF80000FFF7A7FE03485C
:1022D0000068286020467CBD180000201400002003
:1022E0002DE9F0472DED108B04460D461746994613
:1022F000C4F30D04C5F30B0540F67D70844203DD85
:10230000A4F67D7084B200E0002405FB05F0FEF722
:10231000F1F841EC1C0B9FED380B53EC102BFEF742
:1023200008F841EC1B0B9FED360B53EC102BFEF71E
:1023300072F841EC190B2846FEF7EDF841EC1C0B46
:102340009FED310B53EC102BFDF7F3FF41EC1B0B12
:102350009FED2F0B53EC102BFDF7E5FF41EC1A0B13
:1023600053EC192BFDF7DFFF41EC180BFEF7E0F8FB
:1023700080462846FEF7CFF841EC1F0B9FED260B59
:1023800053EC102BFDF7D5FF41EC1E0B9FED240BFA
:1023900053EC102BFEF73FF841EC1D0B9FED220B89
:1023A00053EC102BFDF71EFF41EC1B0BA4F6C410E1
:1023B000FEF7A0F841EC1C0B53EC1B2BFDF7B9FF0B
:1023C00041EC190B4046FEF7A6F841EC1A0B53EC12
:1023D000192BFDF707FF41EC180BFEF7A9F806468D
:1023E00042F20F718E4200D90E46C9F800603C607F
:1023F000BDEC108BBDE8F0879A9999999999F93FAE
:10240000000000000088C3405C8FC2F5285C0D40CE
:10241000F6285C8FC2956940F168E388B5F8143FEF
:1024200000000000000059407B14AE47E17A843F71
:1024300010B500F05DF801200E49086000200E493B
:10244000C1F8980200240FE001200A49091F086022
:10245000022001F06BFD00200749C1F8980202201C
:1024600001F064FD601CC4B2092CEDDB00F018F92A
:1024700010BD00009C824042008040421CB50121FA
:102480000220FFF7B3FB01208DF8040000208DF837
:10249000060001208DF8070002208DF8050080203D
:1024A000009069460848FEF777FD40200090694695
:1024B0000548FEF771FD322001F02CFDFFF7B8FF53
:1024C000142001F027FD1CBD000402401CB5802033
:1024D000009000208DF804008DF8070003208DF88F
:1024E000050069460148FEF757FD1CBD0004024087
:1024F0001CB501208DF8040000208DF80600012095
:102500008DF8070002208DF80500802000906946B4
:102510000148FEF741FD1CBD000402407CB50546A4
:102520000024002001900026012201A9684600F045
:1025300039F82044C4B21CB10124FFF779FF09E047
:10254000054B064ABDF800103046FFF7C9FE0248A9
:102550000068286020467CBD200000201C00002070
:102560007CB505460024002001900026002201A928
:10257000684600F017F82044C4B21CB10124FFF7EC
:1025800057FF09E0054B064A3146BDF80000FFF74A
:10259000A7FE03480068286020467CBD200000207C
:1025A0001C0000202DE9F04705460E461746002482
:1025B000A046A14600F074F817B1012F0CD105E038
:1025C000032000F0A3F82044C4B206E0052000F088
:1025D0009DF82044C4B200E000BF00BFFFF776FFC3
:1025E0004FF4A07001F096FC0B480068012801D15F
:1025F000601CC4B2012000F011F88046012000F0F8
:102600000DF88146002000F009F8307049EA0820F2
:1026100028802046BDE8F0871C82404270B5054600
:102620000026FFF753FF802415E0022001F07EFC16
:10263000012019490860022001F078FC1748D0F801
:102640001C0200B12643002013490860204604EB19
:10265000D071C1F34704002CE7DCFFF749FF25B137
:1026600000200D49091D086003E001200A49091DE9
:102670000860022001F05AFC01200749086002208E
:1026800001F054FC00200549C1F89802022001F035
:102690004DFC304670BD00009882404200804042B0
:1026A00010B5FFF725FF01201649086000201649E4
:1026B000C1F89802022001F039FC01201149091FDC
:1026C000086001F033FC00200F49C1F89C02012092
:1026D00001F02CFC00200B49091F0860022001F0CA
:1026E00025FC01200849C1F8980201F01FFC0120D7
:1026F0000549C1F89C0201F019FC00200249C1F80B
:10270000980210BD9C8240420080404270B5054650
:102710000026FFF7EDFE80241BE004EA050018B157
:1027200001201749086002E00020154908600220D6
:1027300001F0FCFB01201249091F0860022001F092
:10274000F5FB00200F49C1F89802022001F0EEFBD2
:102750006408002CE1D1012009490860FFF7B6FEAA
:1027600001200849C1F89802022001F0DFFB04486B
:102770008038066800200349C1F89802F0B270BDA5
:102780009C824042008040422DE9F04705460E46BB
:1027900017460024A046A14600F074F817B1012F97
:1027A0000CD105E0032000F0A3F82044C4B206E0F9
:1027B000052000F09DF82044C4B200E000BF00BF37
:1027C000FFF722FD4FF4A07001F0A4FB0B48006856
:1027D000012801D1601CC4B2012000F011F880462C
:1027E000012000F00DF88146002000F009F830705B
:1027F00049EA082028802046BDE8F087008242424E
:1028000070B505460026FFF7FFFC802415E0022086
:1028100001F08CFB012019490860022001F086FBC1
:102820001748D0F8000200B1264300201349086081
:10283000204604EBD071C1F34704002CE7DCFFF71E
:10284000F5FC25B100200D49091F086003E00120B7
:102850000A49091F0860022001F068FB01200749AE
:102860000860022001F062FB00200549C1F88402E3
:10287000022001F05BFB304670BD000084824242C2
:102880000080424210B5FFF7D1FC012016490860D4
:1028900000201649C1F88402022001F047FB012004
:1028A0001149091D086001F041FB00200F49C1F8E2
:1028B0008002012001F03AFB00200B49091D08604D
:1028C000022001F033FB01200849C1F8840201F025
:1028D0002DFB01200549C1F8800201F027FB0020F3
:1028E0000249C1F8840210BD808242420080424207
:1028F00070B505460026FFF799FC80241BE004EA2A
:10290000050018B101201749086002E000201549B0
:102910000860022001F00AFB01201249091D08602D
:10292000022001F003FB00200F49C1F884020220BD
:1029300001F0FCFA6408002CE1D10120094908608B
:10294000FFF762FC01200849C1F88402022001F06F
:10295000EDFA04488038066800200349C1F8840273
:10296000F0B270BD80824242008042427047000057
:1029700030B500228B071C0F0F2303FA04F20B4B18
:102980008C1053F824309343084C8D1044F82530B4
:1029900023468C1053F824308C07240F00FA04F4DB
:1029A0002343024C8D1044F8253030BD08380140D7
:1029B0002DE9F041002600240027002523E06420B3
:1029C00001F0A8FA1F480068012809D11E480068D4
:1029D000012802D1781CC7B20BE0601CC4B208E029
:1029E00019480068012802D1701CC6B201E0601CC1
:1029F000C4B21648006808B9012000E0002013495D
:102A00000860681CC5B20A2DD9DB012F06DD022043
:102A10000F49488000200F49086010E0012E06DDB4
:102A200001200B49488000200A49086007E0082C73
:102A300005DD002006494880012006490860BDE800
:102A4000F08100003002424204024342B882414217
:102A500068030020908243420CB500200190009052
:102A60004348006840F480304149086000BF404856
:102A7000006800F4003000900198401C019000981C
:102A800018B90198B0F5A04FF1D13948006800F4A9
:102A9000003010B10120009001E00020009000986B
:102AA000012861D132484030006840F08050304900
:102AB000403108602F48006840F440402D490860CC
:102AC0002B48083000682A49083108600846006829
:102AD00040F4004008600846006840F4A0500860D8
:102AE0002548091F0860081F006840F08070091F12
:102AF000086000BF1E48006800F000700028F9D090
:102B00001C48006840F480301A49086000BF19482A
:102B1000406800F480300028F9D01648006840F47E
:102B200000301449086000BF1248406800F40030CB
:102B30000028F9D040F20570104908600C480830B0
:102B4000006820F003000A49083108600846006860
:102B500040F00200086000BF05480830006800F03F
:102B60000C000828F8D101E000BFFEE70CBD000012
:102B70000038024000700040195A4007003C0240F3
:102B8000042808D14FF0E021096941F004014FF019
:102B9000E022116107E04FF0E021096921F0040112
:102BA0004FF0E022116170477047000010B51548E2
:102BB000006840F47000134908601348006840F052
:102BC00001001149086000200F49083108600E48D3
:102BD00000680E4908400C4908600D48091D08604E
:102BE000081F006820F48020091F086000200649A3
:102BF0000C310860FFF730FF4FF000600149803969
:102C0000086010BD88ED00E000380240FFFFF6FECE
:102C10001030002410B500240121880700F0CFF9FE
:102C200000287DD00121880700F0BAF900BF1CE020
:102C3000E0B2FEF797FB90B14548808B0121A1409F
:102C4000084060B14348005D401C424908550846B1
:102C5000005D032808DB01203F49085504E00020FF
:102C60003D4908553B490855641C082CE0DB3B48AE
:102C70000068012805D13648007F00F001000028D7
:102C800044D13648001F0068012804D13048007F35
:102C900000F00200D0BB314808380068012804D198
:102CA0002B48007F00F0040080BB2D4800680128FD
:102CB00004D12748007F00F0080038BB28480C38B2
:102CC0000068012804D12248007F00F01000E8B914
:102CD000234810380068012804D11D48007F00F007
:102CE000200098B91E4814380068012804D11848FB
:102CF000007F00F0400048B91948183800680128E2
:102D000013D11348007F00F0800070B11148007AA1
:102D1000401C104908720846007A04280ADB00E0CB
:102D200014E001200C49087204E0002009490872EF
:102D300009490872002407E0E0B2FDF737FE10B140
:102D4000002008490855641C092CF5DB10BD000063
:102D5000680300201C030020A405002014824042C8
:102D60003C024342AD05002010B500240121554826
:102D700000F025F9002872D00121524800F010F926
:102D800000BF4CE0504850F82400401C4E4941F828
:102D90002400084650F8240040F6B83188421FD974
:102DA000A01C4A4901EB8000D0F80002012817D18D
:102DB0004748408A002813DD0020434941F8240099
:102DC00034B14348C08C40F480404149C88405E098
:102DD0003F48C08C40F400503D49C884FDF7B6FD23
:102DE00004F10E003B4901EB8000D0F80002A0B9CD
:102DF000394850F82400401C374941F8240008465F
:102E000050F82400B0F5FA6F07D91CB10020304902
:102E1000088502E000202E490882601CC4B2022C02
:102E2000B0DB2E480078401C2C490870084600781A
:102E3000252804DDFEF7E0FA00202849087028481C
:102E40000068401C26490860084600686FF0004191
:102E5000884202D100202249086000242CE02FE0A3
:102E600004EB44001F4901EB8000408810B304EBE1
:102E7000440001EB80004088401E04EB4401194AE5
:102E800002EB8101488004EB4400114601EB800015
:102E9000408878B9012004EB440102F8210004EBDA
:102EA0004400114601EB8000808804EB440102EBF2
:102EB00081014880601CC4B20B4800688442CFD3B3
:102EC00010BD000000040040340000200000424219
:102ED00068030020008043423C0000208300002063
:102EE0002C000020440000207400002010B50024B5
:102EF0000121234800F063F800283FD00121204839
:102F000000F04EF81F48007800F0040008B300BF3E
:102F10001DE01D48005D012818D11C48005D401CC3
:102F20001A490855E0B2FDF741FD10B100201749DC
:102F300008551648005D042808DD1548C08C01219D
:102F4000A14008431249C884FDF700FD641C092C08
:102F5000DFDB1048006801280BD10F4800686421AE
:102F600048430A21B1EB103F03D800200B49086009
:102F700004E00A480068401C0849086010BD0000D1
:102F80000008004030000020A4050020AD0500200E
:102F9000680300202002424284000020AC00002090
:102FA000CA430282704721B1028842F001020280C6
:102FB00004E002884FF6FE731A400280704730B575
:102FC0000246002000230024158A05EA01039589A2
:102FD00005EA010413B10CB1012000E0002030BD6E
:102FE0001AB183890B43838102E083898B438381F8
:102FF0007047000000220288184B98420ED0184BF0
:1030000098420BD0B0F1804F08D0164B984205D0B3
:10301000154B984202D0154B984204D14FF68F734E
:103020001A404B881A43124B984207D0114B9842D2
:1030300004D04FF6FF431A400B891A4302804B68B5
:10304000C3620B880385054B984202D0044B98421B
:1030500001D18B7A038601238382704700000140EF
:10306000000401400004004000080040000C004043
:1030700000100040001400407FB504460D460121B9
:103080000220FEF7C3FDADF8045002940020ADF815
:103090000C00ADF8060001A90D48FFF7ABFF0122B7
:1030A00011460B48FFF79CFF1D208DF80000012002
:1030B0008DF8030004208DF8010000208DF8020037
:1030C0006846FEF74BFA01210148FFF76CFF7FBD10
:1030D0000004004010B5002400BF14E004EB4400DD
:1030E0000B4911F8200060B104EB4401084A02EBDF
:1030F000810188688047002004EB4401044A02F8FB
:103100002100601CC4B2034800688442E6D310BDAD
:1031100044000020740000201CB501212C20FEF783
:1031200065FD8020009003208DF8040000208DF8BC
:10313000070069461748FDF72FFF4FF48070009095
:1031400069461448FDF728FF04200090694612489C
:10315000FDF722FF01208DF8040000208DF8060005
:1031600001208DF8070002208DF80500C0020090B4
:1031700069460948FDF710FF01200090694607489D
:10318000FDF70AFF0220009069460448FDF704FF9E
:103190001CBD00000014024000080240000C024068
:1031A00010B5FFF7B9FFFDF7CBFA10BD7FB50446A8
:1031B0000D4601210420FEF729FDADF804500294CC
:1031C0000020ADF80C00ADF8060001A90D48FFF78E
:1031D00011FF012211460B48FFF702FF1E208DF858
:1031E000000001208DF8030003208DF8010000206D
:1031F0008DF802006846FEF7B1F901210148FFF79A
:10320000D2FE7FBD000800407FB504460D46012177
:103210000846FEF7FBFCADF8045002940020ADF820
:103220000C00ADF8060001A94FF08040FFF7E2FE68
:10323000012211469007FFF7D3FE1C208DF80000F5
:1032400001208DF8030002208DF8010000208DF888
:1032500002006846FEF782F901218807FFF7A3FE06
:103260007FBD10B559210920FFF7CEFF592140F24B
:103270002B10FFF79BFF10BD70B50024002540F216
:103280002551514800F0E1F900287DD040F2255148
:103290004D4800F0A9F94C4800F090FAC4B24B48F0
:1032A000007818B900204A4981F86400484890F82D
:1032B000641090F86400401C454A82F8640010468F
:1032C00044544248007808287BD2DFE800F0040527
:1032D00022262A2E323B00BF3D4890F86400012888
:1032E00008D1FE2C03D000203849087002E00120EC
:1032F00036490870364890F86400022808D1EF2C4F
:1033000003D000203149087002E002202F490870E4
:1033100058E003202D49087054E004202B49087020
:1033200050E00520294908704CE006202749087024
:1033300048E0274890F864000A2802D10720234972
:1033400008703FE0224890F864000C2837D12048EC
:10335000C07A1F49897A40EA012545F2AA50854280
:103360002AD11B4840781A49097840EA01201749B8
:10337000888017488178154881711548C1781348AD
:10338000C1711348017900E01DE010480172104836
:1033900041790E4841720E48D0F806100B48C160C2
:1033A0000B48C07A0A49897A40EA0121074801821C
:1033B0000849001DFEF73EF900200449087001E0AD
:1033C000FFE700BF00BF70BD00440040F4020020D2
:1033D0002A020020680300202DE9F0410025002486
:1033E000002640F22551794800F02FF900287DD0C1
:1033F00040F22551754800F0F7F8744800F0DEF906
:10340000C5B27348007818B90020724981F8640089
:10341000704890F8641090F86400401C6D4A82F87F
:103420006400104645546A48007808287ED2DFE8D8
:1034300000F0040522262A2E323D00BF654890F890
:103440006400012808D1FE2D03D0002060490870D7
:1034500002E001205E4908705E4890F8640002288E
:1034600008D1EF2D03D000205949087002E0022056
:10347000574908708DE003205549087089E0042001
:103480005349087085E005205149087081E0062005
:103490004F4908707DE04F4890F864104079801DD6
:1034A000814202D107204A49087072E0494890F8E9
:1034B000641040790830814269D146484079C01D86
:1034C0004449095C43484079801D424A105C41EA06
:1034D000002645F2AA50864256D110464078114641
:1034E000097840EA01203A49888000E052E010461D
:1034F0008178374881711046C1783548C1711046CE
:103500000179334801721046417931484172901D6A
:103510002F49C860801F4079C01D1146095C1046C4
:103520004079801D105C41EA002100E030E028482D
:103530000182012406E026488079A04200D103E000
:10354000601CC4B2082CF6DD00BF2148477A07EBA7
:10355000D7704110601EC0EB00101F4A02EB8003C1
:103560001C4A921D1A48001DFEF790FC601EC0EB1D
:103570000010194901EB8000408E18498880002115
:10358000601E174A42F8201000201149087000E020
:1035900000BF00BF40F226610C4800F056F898B119
:1035A00040F22661094800F01FF800200D4908602C
:1035B000012240F22551054800F071F8002240F246
:1035C0002661024800F06BF8BDE8F0810048004039
:1035D000080300208F0200209203002068030020CF
:1035E00084050020BC02404210B50022002340F6B2
:1035F0006A14A14200D100BF0A1201249440A3B270
:10360000DC43048010BD21B1828942F400528281E2
:1036100004E082894DF6FF731A40828170471AB127
:10362000838A0B43838202E0838A8B4383827047C1
:1036300002460020B1F5007F00D100BF13880B4087
:103640000BB1012000E00020704770B50246002455
:1036500000230025002040F66A16B14200D100BFC9
:10366000C1F3421501F01F03012606FA03F3012DF1
:1036700002D19689334006E0022D02D1168A3340EA
:1036800001E0968A33400C12012606FA04F41688EB
:10369000344013B10CB1012000E0002070BDF0B542
:1036A0000346002400260025002040F66A17B94290
:1036B00000D100BF1846C1F3421401F01F060127D4
:1036C00007FA06F5012C01D10C3004E0022C01D1DF
:1036D000103000E014301AB107682F43076002E091
:1036E0000768AF430760F0BD2DE9FF4705460E466A
:1036F0000024A14600BFA046B08900B100BF2C8ABB
:1037000024F44054F08804432C82AC8941F20C60CC
:103710008443B08831890843718908430443AC81EC
:10372000AC8A24F44074B0890443AC826846FEF746
:103730009DFA2048854202D01F48854202D1DDF81B
:103740000C9001E0DDF80890A88900F4004040B139
:1037500009EBC90000EB091031684900B0FBF1F733
:1037600007E009EBC90000EB091031688900B0FBE4
:10377000F1F76420B7FBF0F004012009642101FB9C
:103780001078A88900F4004040B1322000EBC80056
:10379000B0FBF1F000F00700044308E0322000EB3A
:1037A00008106421B0FBF1F000F00F0004432C81FD
:1037B000BDE8FF87001001400014014001468888E1
:1037C000C0F308007047C1F308028280704700BF51
:1037D000FEE700000FB4054B10B503A9044A029898
:1037E00000F018F810BC5DF814FB0000F140000870
:1037F0002C01002002E008C8121F08C1002AFAD1DB
:1038000070477047002001E001C1121F002AFBD160
:10381000704700002DE9FF4F8DB00F46054600268A
:1038200006E025280BD0DDE90F1290476D1C761CB1
:1038300028780028F5D111B03046BDE8F08F00247B
:10384000A246A1460122EC4900E0044315F8013FDD
:10385000203B02FA03F00842F7D128782A2810D03A
:103860006FF02F022878A0F13001092914D80AEB53
:103870008A0102EB410144F0020400EB010A6D1CD5
:10388000F0E701CF5FEA000A03D544F40054CAF11F
:10389000000A44F002046D1C28782E2817D115F870
:1038A000010F44F004042A280ED06FF02F0228786C
:1038B000A0F1300109290AD809EB890102EB410185
:1038C00000EB01096D1CF2E757F8049B6D1C28788A
:1038D0006C280FD006DC4C2817D068280DD06A2839
:1038E00014D104E0742810D07A280FD10DE044F4EC
:1038F00000140AE044F4801401E044F440146978B0
:10390000814202D104F580146D1C6D1C2A786E2A48
:103910001FD00CDC632A31D004DC002A8BD0582A5B
:1039200011D1A3E0642A68D0692A0CD165E0732A1A
:103930002ED004DC6F2A73D0702A04D19BE0752A44
:103940006FD0782A6ED01046DDE90F129047761CB2
:1039500050E1C4F30250022806D0032809D00428FD
:1039600001CF09D0066045E101CFF117C0E9006140
:1039700040E101CF06803DE106703BE117F8040B02
:103980008DF8000000208DF80100EB46012003E0D7
:1039900057F804BB4FF0FF3061074FF0000102D42D
:1039A0000DE008F10101884649450FDA8045F8DB52
:1039B0001BF808100029F4D108E008F1010188463D
:1039C0008142FADB1BF808100029F6D1DDE90F234C
:1039D000AAEB08008146214600F036F9304400EB9E
:1039E000080604E0DDE90F121BF8010B9047B8F15F
:1039F0000108F7D221464846F7E00A21C4F30253F2
:103A00004FF0000B0891022B04D001CFC117032BFC
:103A100009D00AE0FF1D27F00707F7E8020108E0D8
:103A200032E01FE020E000B2C117042B01D140B208
:103A3000C117031E71F1000307DA4FF0000CD0EB41
:103A40000C006CEB01012D2302E0230504D52B2390
:103A50008DF82430012303E0E30701D02023F7E7AA
:103A6000984658E00A2110E010210EE010204FF097
:103A7000000B08900CE010214FF0000B44F0040400
:103A80004FF00809089103E008214FF0000B08915E
:103A9000C4F30253022B04D001CF0021032B06D024
:103AA00006E0FF1D27F00707F7E8020103E080B2F8
:103AB000042B00D1C0B24FF0000823072BD5702A89
:103AC00007D0DDF820C08CF0100C5CEA0B0C05D0A0
:103AD0000EE040238DF82430012308E050EA010372
:103AE00006D030238DF824308DF825200223984607
:103AF000DDF820C08CF0080C5CEA0B0C0BD150EA0E
:103B0000010301D1630706D530238DF824304FF02F
:103B10000108A9F10109582A04D038A20B9208AA79
:103B20000A920BE03AA2F9E75B46089AFCF719FD06
:103B30000B9B9B5C0A9A521E0A92137050EA010278
:103B4000F2D10A98ADEB000000F1200B600702D51E
:103B500024F4803401E04FF00109D94502DDA9EBDE
:103B60000B0000E0002000EB0B0141440890AAEBA1
:103B7000010AE00306D4DDE90F232146504600F098
:103B800063F806444FF0000908E009A911F809009C
:103B9000DDE90F12904709F10109761CC145F4DBFC
:103BA000E0030CD5DDE90F232146504600F04CF828
:103BB000064404E0DDE90F1230209047761C089996
:103BC000481E08900029F5DC08E00A980A99007858
:103BD000491C0A91DDE90F129047761CBBF10001E8
:103BE000ABF1010BF1DC21465046DDE90F2300F07B
:103BF00019F806446D1C1BE60928010030313233E8
:103C00003435363738396162636465660000000018
:103C10003031323334353637383941424344454602
:103C2000000000002DE9F041044600251E4617461D
:103C3000880404D405E039462020B0476D1C641E7A
:103C4000F9D52846BDE8F0812DE9F041044600256C
:103C50001E469046C80301D5302700E0202788047F
:103C600004D505E041463846B0476D1C641EF9D5C1
:103C70002846BDE8F0810EB5FDF720F90121880343
:103C8000FDF7D4FF0E210720FEF772FE0F2107205B
:103C9000FEF76EFE4FF48040009000208DF8040087
:103CA00008208DF8050001208DF806006846FDF714
:103CB00029F94FF40040009000208DF804000820FE
:103CC0008DF8050001208DF806006846FDF71AF909
:103CD00028208DF8080000208DF8090002208DF8BA
:103CE0000A0001208DF80B0002A8FDF737FC0EBD7D
:103CF0001CB501210802FDF779FF01208DF80400B1
:103D00008DF8060000208DF8070001208DF80500D1
:103D10000C20009069460D48FDF73EF901208DF812
:103D2000040000208DF8060001208DF80700022015
:103D30008DF80500009069460448FDF72DF9002034
:103D40000349086000F090FA1CBD0000002002400A
:103D5000840244421CB5012140F26F10FDF746FF7A
:103D600000208DF8040002208DF8070003208DF854
:103D700005000120009069463448FDF70DF94FF425
:103D80000060009069463248FDF706F91020009067
:103D900069463048FDF700F90820009069462D4833
:103DA000FDF7FAF80820009069462B48FDF7F4F873
:103DB0000120009069462748FDF7EEF8202000908A
:103DC00069462648FDF7E8F8102000906946234828
:103DD000FDF7E2F82020009069461C48FDF7DCF86A
:103DE0001020009069461948FDF7D6F80820009089
:103DF00069461648FDF7D0F84FF400400090694638
:103E00001748FDF7C9F84FF48050009069461448F0
:103E1000FDF7C2F84FF40060009069461048FDF7C6
:103E2000BBF84FF48060009069460D48FDF7B4F888
:103E30004FF40070009069460948FDF7ADF8802006
:103E4000009069460748FDF7A7F81CBD0004024032
:103E5000001402400000024000080240002002401E
:103E600000180240000C02401CB501214FF49A706A
:103E7000FDF7BCFE00208DF8040002208DF807003D
:103E800003208DF805004FF4005000906946184853
:103E9000FDF782F84FF48050009069461448FDF712
:103EA0007BF80120009069461248FDF775F84FF441
:103EB0008060009069461048FDF76EF84020009041
:103EC00069460E48FDF768F82020009069460B48C7
:103ED000FDF762F88020009069460748FDF75CF81E
:103EE0004020009069460448FDF756F81CBD0000CC
:103EF000001402400008024000200240001002406E
:103F000010B504460420FEF73BFE0148047010BDC6
:103F10001000002030B50446002504E04FF47A700C
:103F200000F004F86D1CA542F8D330BD0146114ADB
:103F300012784A434FF0E0235A6100229A611A46F0
:103F4000126942F001021A6100BF4FF0E0221069CD
:103F500000F001021AB100F48032002AF5D04FF0CF
:103F6000E022126922F001024FF0E0231A610022E0
:103F70009A6170471000002010B5A02000F0E0F812
:103F800008B9012010BD00F06FF90020FAE72DE913
:103F9000F04107460D46164600F050F90E2101EAA1
:103FA000E51141F0A00000F023F900F06DF900B137
:103FB00029E0E8B200F01CF900F066F900B122E057
:103FC00000F03CF90E2101EAE51141F0A10000F0FA
:103FD0000FF900F059F900B115E000240CE000F0F1
:103FE000E7F83855701EA04202D000F093F801E0C7
:103FF00000F0CAF8601C84B2B442F0DB00F034F97F
:104000000120BDE8F08100F02FF90020F9E7000061
:104010002DE9F0478046894617469A4600203349E5
:1040200008603E46002537E015B106F00F0008BBDA
:1040300000F01AF900240EE000F000F90E2101EA68
:10404000E61141F0A00000F0D3F800F01DF900B92E
:1040500004E0601C84B2B4F57A7FEDDB00BFB4F5F8
:104060007A7F00D13AE0F0B200F0C2F800F00CF92B
:1040700000B133E0B8F1000F01DDFF2101E019F8D4
:104080000510084600F0B4F800F0FEF800B125E095
:10409000701C86B2681C85B25545C5DB00F0E4F89B
:1040A00000240EE000F0CAF80E2101EAE71141F009
:1040B000A00000F09DF800F0E7F800B904E0601CF3
:1040C00084B2B4F57A7FEDDB00BFB4F57A7F00D11E
:1040D00004E0012005490860BDE8F08700F0C4F85D
:1040E0000120024908600020F6E7000084024442F3
:1040F00070B504460D46E1B20548FFF764FB00BF0A
:1041000080210348FFF794FA0028F9D0204670BDBB
:104110000044004010B508200849488300F02CF8FE
:1041200004200649088300F027F804200349488347
:1041300000F022F808200149088310BD0020024049
:1041400070B504460B48006900F0080080B10948CA
:10415000006900F0040058B100F070F8204600F04B
:1041600047F800F091F8054600F07EF8284670BD4B
:104170000120FCE700200240002001E0411CC8B201
:104180001E28FBDB7047000010B508200749088394
:10419000FFF7F2FF042005490883FFF7EDFF042035
:1041A00002494883FFF7E8FF10BD000000200240ED
:1041B00070B50024002514E06006040E04200B49AD
:1041C0000883FFF7D9FF0948006900F0080008B12B
:1041D000601CC4B2042005494883FFF7CDFF681C6A
:1041E000C5B2082DE8DB204670BD0000002002406B
:1041F00070B50446002517E004F0800018B10820CF
:104200000D49088302E008200B494883FFF7B4FFFB
:10421000042009490883FFF7AFFF042006494883BB
:104220006006040E681CC5B2082DE5DBFFF7A4FF8D
:1042300008200149088370BD0020024010B5082005
:104240000849088304200883FFF796FF08200549E2
:104250004883FFF791FF042002494883FFF78CFF52
:1042600010BD00000020024010B508200549488319
:1042700004200883FFF780FF082002490883FFF726
:104280007BFF10BD0020024010B508200B490883B9
:10429000FFF772FF042009490883FFF76DFF074805
:1042A000006900F0080008B1012400E000240420A7
:1042B00002494883FFF760FF204610BD00200240FE
:1042C000B420FFF71DFE4FF4A060FDF783F9FDF762
:1042D00017F8FDF795FB0120264908602649C1F82B
:1042E0008402FDF719FBFEF75BFFFEF7C7F8FDF749
:1042F00063FFFDF779F9FFF7FBFCFFF72BFDFFF7F5
:10430000B3FDFEF7AEFF00BFFFF736FE0028FBD07F
:10431000FEF74EFB4FF47A70FFF7FCFDFDF71AFD38
:10432000FDF7C4FD012280211448FFF778F901222E
:1043300080211348FFF773F9FFF79DFC40F2E73146
:104340005920FEF799FEFCF7D3FC01200D490860C7
:1043500000200D49C1F8A00201200C49086000208E
:10436000091F08600949091D086001E0FEF7B2FE57
:10437000FCE70000908243420000424200440040BB
:1043800000480040A40241420000404298024342DB
:1043900038B500240020009000BF03E0FCF768FE61
:1043A000601CC4B2082CF9DB59480078052865D296
:1043B000DFE800F003101D2A37006846FDF76EFFA6
:1043C00010B954490098C88051480078401C5049A1
:1043D000087057E06846FDF73FFF10B94D49009857
:1043E00008814B480078401C494908704AE06846FB
:1043F000FEF7B6F810B9474900984881444800785C
:10440000401C434908703DE06846FEF787F810B944
:104410004049009888813E480078401C3C4908701B
:1044200030E00C20FCF77AFE3A4908843A4880894B
:1044300048843948008888840846818CC08A0A38B4
:10444000364A32F81000814212DD35480078401CAF
:104450003349087008460078012809DD05200870F6
:104460002C48C08C40F400702A49C884FCF76EFACE
:1044700027480078401C2649087003E000202449A2
:10448000087000BF00BF2748006808B9012000E09D
:1044900000202449086024480078002818DD45F2EF
:1044A000AA50224908801B48408A48801948808BBE
:1044B00088801848808AC8801648C08A08811548B4
:1044C000008B48811348408B88811248C08BC8817B
:1044D00015480078012802D0022815D10AE04FF4CF
:1044E0000063002211460120FFF792FD00200E49D3
:1044F00008700AE0102300220C491046FFF788FDDF
:1045000000200949087000E000BF00BF38BD00006E
:104510007F0000206803002028030020B400002052
:1045200080000020B48241428A00002072050020F1
:1045300010B50024BA48006860B9BA4800780A2863
:1045400004DAB8480078401CB64908700020B64923
:1045500008700BE0B44800780A2804DAB248007802
:10456000401CB14908700020AE490870AE48007880
:1045700002280CDDAC4800780A2808DA0A20AA498B
:104580000870AA48006840F00100A8490860A748E0
:10459000007800F00100002844D0A548C08C012814
:1045A00040DA9F480068012805D1A2480078401CE5
:1045B000A049087002E000209E4908709D480078DC
:1045C0000A282FDD00209B4908709848006820F0D9
:1045D0000100964908600846006820F00200086063
:1045E0000846007800F0040080B10846006820F01A
:1045F000040008600020904908609049C1F89402C6
:104600008B49C88186496C3108600BE08748006897
:1046100040F0040085490860012087490860874907
:10462000C1F894028648006860B9864800780A2874
:1046300004DA84480078401C8249087000208249CE
:1046400008700BE0804800780A2804DA7E48007879
:10465000401C7D49087000207A4908707A4800782B
:1046600002280CDD784800780A2808DA0A20764902
:1046700008706E48006840F002006C49086071489C
:10468000007802280CDD6F4800780A2808DA0A2032
:104690006C4908706548006840F002006349086092
:1046A0006248007800F0020000284ED06048C08CBC
:1046B00001284ADA62480068012808D16348007876
:1046C000401C6249087000206149087007E0002022
:1046D0005E4908705E480078401C5D4908705B4880
:1046E0000078282814DD0020584908704F480068D9
:1046F00020F002004D4908600846006840F00400C0
:10470000086001204C4908604C49C1F894021CE043
:104710004F480078282818DD00204D49087043488C
:10472000006820F00200414908600846006820F057
:10473000040008600020404908604049C1F8940224
:104740003B49C88136496C310860354810300068F3
:1047500078B93348001D006858B931480C300068FA
:1047600038B93348C08C40F400603149C884FCF744
:10477000EDF82B4808300068012807D12C48C08C80
:1047800040F480502A49C884FCF7E0F82448001F10
:10479000006838B92648C08C40F480602449C88439
:1047A000FCF7D4F8FCF7D2FC002435E0E0B2FCF7CB
:1047B00089FE68B11E48808B0121A140084038B1B4
:1047C000FCF7C4F81A48C08C40F400401849C8846B
:1047D0001748808B0121A1400840E0B11D4850F8E6
:1047E0002400401C1B4941F82400084650F82400CE
:1047F000B0F5487F0FD9C4EB0410174901EB8000D6
:10480000408F40F40060C4EB0411134A02EB8101B5
:104810004887FCF79BF8641C082CC7DB10BD000020
:104820001C8243427D0000207B00002030000020DD
:104830006803002078000020A00243420080434229
:104840002C0242427E0000207C00002079000020E3
:104850007A000020840500209203002070477047F2
:104860008048000800000020300100000407000814
:104870003049000830010020880800000438000892
:10488000510D37010203040102030406070809441D
:104890000A000A3531450008358403840335914305
:1048A000000844320032355D48000835E803E8036B
:1048B00006185F48000804420142024203420442D3
:1048C0000542064207C208006717C905F00516062B
:1048D0003D0663068906B006D606FC062207480791
:1048E0006D079207B707DB070008230847086A0827
:1048F0008C08AE08D008F108120932096B09710959
:104900009009AE09CC09E909050A210A3D0A580AAD
:10491000720A8C0AA50ABE0AD60AEE0A050B1C0BFF
:10492000320B470B5D0B710B850B990BAC0BBF0B5F
:04000005080001AD41
:00000001FF
