:020000040800F2
:10000000F0070020C1010008390F0008290E000880
:10001000350F0008AB0800082F2C00080000000076
:100020000000000000000000000000003D23000868
:10003000350B000800000000E912000861250008E7
:10004000DB010008DB010008DB010008DB01000820
:10005000DB010008DB010008DB010008DB01000810
:10006000DB010008DB010008DB010008DB01000800
:10007000DB010008DB010008DB010008DB010008F0
:10008000DB010008DB010008DB010008DB010008E0
:10009000DB010008DB010008DB010008DB010008D0
:1000A000DB010008DB010008DB010008DB010008C0
:1000B000DB010008CD250008DB010008DB0100089A
:1000C000DB010008DB010008DB010008DB010008A0
:1000D000DB010008DB01000891280008F129000875
:1000E000390B0008DB010008DB010008DB01000818
:1000F000DB010008DB010008DB010008DB01000870
:10010000DB010008DB010008DB010008DB0100085F
:10011000DB010008DB010008DB010008DB0100084F
:10012000DB010008DB010008DB010008DB0100083F
:10013000DB010008DB010008DB010008DB0100082F
:10014000DB010008DB010008DB010008DB0100081F
:10015000DB010008DB010008DB010008DB0100080F
:10016000DB010008DB010008DB010008DB010008FF
:10017000DB010008DB010008DB010008DB010008EF
:10018000DB010008DB010008DB010008DB010008DF
:10019000DB010008DB010008DB010008DB010008CF
:1001A000DB010008DB010008DB010008DFF80CD0F0
:1001B00000F066FA00480047752D0008F00700209F
:1001C0000648804706480047FEE7FEE7FEE7FEE7F1
:1001D000FEE7FEE7FEE7FEE7FEE7FEE7652500082F
:1001E000AD0100082DE9FE4F804681EA0300C00FF3
:1001F0000C46009021F0004123F00045B8EB0200CE
:10020000A94105D24046214690461C460B4602466F
:1002100023F00040104347D0270DC7F30A00C3F373
:100220000A510290401A019040286BDAC3F3130080
:1002300040F4801B0098924620B10023D2EB030AC1
:1002400063EB0B0B01985946C0F14002504600F099
:1002500088F906460D4650465946019A00F0A0F925
:1002600010EB08006141002487EA115284EAE77329
:100270001A4340D0009A62B3019A012A4FEA07520A
:1002800015DC001B61EB02014FF0004202EA07524D
:10029000CDE90042001C41F5801132462B4600F0AA
:1002A000A0F903B0BDE8F08F40462146F9E7001BF6
:1002B00061EB0201001C41F5801300185B4120181E
:1002C000A2F5001747EB030140EAD570B6196D415E
:1002D00011E06D084FEA360645EAC0754FEA07524D
:1002E000001B61EB0201001C41F5801149084FEA37
:1002F00030000019514132462B4603B0BDE8F04FA3
:1003000000F060B90098012240000023D0EB020207
:1003100063EBE073009821464FEAE074B8EB00000D
:1003200061EB0401E9E783F000435BE781F0004102
:1003300058E72DE9FE4F81EA030404F0004421F060
:10034000004100944FF0000B23F0004350EA0104F9
:100350005ED052EA03045BD0C3F30A54C1F30A55DA
:100360002C44A4F2F3340194A0FB0254C1F3130112
:1003700041F48011C3F3130343F4801301FB0244DF
:1003800000FB034E840A970A44EA815447EA8357E4
:10039000A4FB076802958D0A05FB07854FEA932C9D
:1003A00004FB0C542705029D4FEA065847EA16370E
:1003B000B5EB08056EEB070C870E920E47EA811726
:1003C00042EA8312A7FB0201B6EB0B0164EB0004C7
:1003D0002B0D43EA0C335E1844EB1C50DA465146B1
:1003E000E7FB0201C5F313044FEA0B3343EA14534E
:1003F0004FEA0432019C43EA0603A4F10C04029480
:10040000009CCDE900B400F0ECF803B0BDE8F08F3B
:1004100000200146F9E72DE9F04D81EA030404F0DC
:10042000004B21F0004514464FF0000A23F0004134
:1004300050EA050220D054EA01021DD0C5F30A5744
:100440000246C5F31303C1F31300C1F30A5640F487
:10045000801543F48013A7EB0608101BD64608F25C
:10046000FD3873EB050002D308F1010801E0921892
:100470005B41B8F1000F03DA00200146BDE8F08DC2
:1004800000204FF48011064684460EE0171B73EBE4
:10049000050705D3121B63EB050306434CEA010C69
:1004A00049084FEA300092185B4150EA0107EDD14C
:1004B00052EA030012D082EA040083EA05010843ED
:1004C00005D0101BAB4106D20122002306E000221A
:1004D0004FF0004302E06FF0010253101AEB0600E8
:1004E0004CEB085110EB0A0041EB0B01BDE8F04D5D
:1004F00000F068B80EB5C10F80EAE0700844CA0782
:10050000002140F233438DE80E000A460B4600F00E
:1005100068F803B000BD0EB540F2334102910021EE
:10052000CDE900110A460B4600F05BF803B000BDB0
:10053000C1F30A5210B5C1F3130140F2FF3341F485
:1005400080119A4201DA002010BD40F233439A42F2
:10055000A2F2334203DC524200F012F810BD904088
:1005600010BD202A04DB203A00FA02F10020704777
:100570009140C2F1200320FA03F3194390407047E1
:10058000202A04DB203A21FA02F00021704721FAE8
:1005900002F3D040C2F1200291400843194670474F
:1005A000202A06DBCB17203A41FA02F043EAE07337
:1005B00006E041FA02F3D040C2F120029140084324
:1005C0001946704710B5141E73F1000408DA401C78
:1005D00041F1000192185B411A4301D120F0010062
:1005E00010BD2DE9F04D92469B4611B1B1FA81F252
:1005F00002E0B0FA80F220329046FFF7B2FF0446E4
:100600000F4640EA0A0041EA0B0153465A460843A6
:1006100013D0114653EA010019D0C8F140025046E8
:10062000FFF7AEFF05460E46504659464246FFF7D5
:1006300098FF084305D0012004E020463946BDE874
:10064000F08D0020054346EAE0762C4337430A98B4
:100650006305E40AA0EB08000022FD0A44EA4754BF
:100660000A3002D500200146E9E701051019694169
:10067000DDE9084500196941BDE8F04DA2E7000039
:10068000064C074D06E0E06840F0010394E80700DF
:1006900098471034AC42F6D3FFF78CFDF8300008D1
:1006A0001831000800B58BB00121880200F0B6FFB8
:1006B0000121880200F0C2FF00214FF4806000F0A9
:1006C000BDFF002007900A9009904FF480300890F9
:1006D00007A800F023F8002001908DF808008DF89D
:1006E00009000390059001208DF8180001A9044825
:1006F00000F050F80121024800F004F80BB000BDF2
:100700000022014021B1826842F00102826003E0D0
:10071000826822F001028260704700000021084ACE
:100720001168084A1140D0E900231A4383681A432C
:10073000C3681A431143044AC2F804137047000007
:1007400004230140E030FCFF0020014021B1826819
:1007500042F48072826003E0826822F480728260D8
:10076000704721B1826842F40072826003E08268BF
:1007700022F40072826070470146C86C80B27047F4
:100780000246002013680B400BB1012000E000205E
:100790007047000030B50246002000235068104C1E
:1007A00020400D790C6844EA05242043506090688D
:1007B0000C4C2040D1E903542C438D682C434D79D7
:1007C00044EA450420439060D06A20F470000C7D18
:1007D000641EE4B2234340EA0350D06230BD0000FF
:1007E000FFFEFFFCFDF7FFC0F0B504460D460020FC
:1007F0000021092D11DDE068A5F10A0606EB460788
:10080000072606FA07F18843A5F10A0606EB460615
:1008100003FA06F10843E0600CE0206905EB4507A8
:10082000072606FA07F1884305EB450603FA06F1A9
:1008300008432061072A0FDA606B561E06EB860715
:100840001F2606FA07F18843561E06EB860605FAB0
:1008500006F10843606322E00D2A0FDA206BD61FF1
:1008600006EB86071F2606FA07F18843D61F06EB1C
:10087000860605FA06F10843206310E0E06AA2F15B
:100880000D0606EB86071F2606FA07F18843A2F13C
:100890000D0606EB860605FA06F10843E062F0BD98
:1008A000816841F080418160704700BFFEE7000031
:1008B0000246094B9A4201D2084801E00648103826
:1008C00001F000531BB1064B0B40C36002E0044B28
:1008D0000B408360704700001064024000600240DB
:1008E0007D0F7D0F21B1026842F00102026003E03A
:1008F000026822F00102026070470000016821F0E6
:10090000010101600021016041608160C1600161FD
:10091000212141614A49884204D13D21484A103A87
:1009200091608CE046491831884205D14FF47461DA
:10093000434A103A916082E041493031884205D102
:100940004FF474113E4A103A916078E03C494831C6
:10095000884205D14FF07461394A103A91606EE0D7
:1009600037496031884204D13649354A103AD1605E
:1009700065E033497831884204D13349304A103A2E
:10098000D1605CE02E499031884204D12F492C4A35
:10099000103AD16053E02A49A831884205D14FF07E
:1009A0003D51274A103AD16049E02949884204D193
:1009B0003D21274A083A116041E025491831884213
:1009C00005D14FF47461224A083A116037E020499A
:1009D0003031884205D14FF474111D4A083A116034
:1009E0002DE01B494831884205D14FF07461184A07
:1009F000083A116023E016496031884204D1114958
:100A0000134A121F11601AE011497831884204D14B
:100A10000D490F4A121F116011E00D4990318842B3
:100A200004D10A490A4A121F116008E00849A83196
:100A3000884204D14FF03D51054A121F11607047A2
:100A4000106002403D000020400F002000003D20CB
:100A50001064024070B504460D4600212046FFF7A1
:100A600041FF00BF204600F00BF80028FAD12946CC
:100A7000204600F05DF801212046FFF733FF70BDEE
:100A8000014600200A6802F001020AB1012000E0DC
:100A90000020704730B503460A46002000240B4D65
:100AA000AB4201D20A4901E00849103902F0005571
:100AB0000DB14C6800E00C68064D2C4004EA0205BC
:100AC0000DB1012000E0002030BD000010640240A4
:100AD000006002407D0F7D0F10B500220268134BAD
:100AE0001A40CC680B6823434C6923438C69234329
:100AF000CC6923430C6A23434C6A23438C6A234307
:100B00004C6B23438C6B23431A430260426922F0EF
:100B10000702D1E90B3423431A4342610B69436056
:100B20004B6883608B68C36010BD00003F801CF081
:100B3000416070477047000010B54FF4804000F0EE
:100B400043F8D8B14FF4804000F020F80C480088FA
:100B5000401C0B4908800B480068B0F57A7F0DD91E
:100B600000200849086006480088C0EB401101EBEE
:100B700080100549086000200149088010BD000070
:100B800024000020300000203400002001490860CB
:100B900070470000143C01401CB50121802000F08A
:100BA0001DFD4FF48040009000208DF804000320CC
:100BB0008DF8050002208DF807006946014800F015
:100BC00059F81CBD001C024001460020034A12686F
:100BD0000A400AB1012000E000207047143C0140A7
:100BE000002123498279002A3AD00A461268036814
:100BF0009A430B461A600A1D126803689A430B1D3C
:100C00001A60027911440A6803681A430A60184A94
:100C10000832126803689A43154B08331A601A1D8C
:100C2000126803689A43124B0C331A604279102AF7
:100C30000ED11A1F126803681A430D4B08331A604D
:100C40001A1D126803681A43094B0C331A600DE031
:100C50000749427911440A6803681A430A6005E0AB
:100C6000027911440A6803689A430A6070470000D9
:100C7000003C0140F0B50A4600210023002400BFDB
:100C80003DE0012505FA01F3156805EA03049C42DD
:100C900034D105684F000326BE40B5430560157981
:100CA0004E00B5400668354305601579012D02D028
:100CB0001579022D16D185684F000326BE40B54335
:100CC000856055794E00B540866835438560456836
:100CD00001268E40B5434560456896798E40B6B290
:100CE00035434560C5684F000326BE40B543C56027
:100CF000D5794E00B540C6683543C560491C1029FA
:100D0000BFD3F0BDF0B5002300244D07ED0E02FA6D
:100D100005F3CE1000F1200555F826504E07F70ECA
:100D20000F26BE40B543CF1000F1200646F82750ED
:100D3000CE1000F1200555F8265045EA0304CE10E8
:100D400000F1200545F82640F0BD000010B526480A
:100D5000007800F0010018B101202449086002E089
:100D60000020224908602048007800F0020018B1F5
:100D700001201F49086002E000201D4908601A4850
:100D8000007800F0040020B101201949091D086015
:100D900003E000201649091D0860032001F0A6FFAA
:100DA000052000F029F813490F4A127841F8220073
:100DB000022001F09BFF062000F01EF80D4A0A49B0
:100DC0000978083142F8210007480078401C06499C
:100DD00008700878C11700EB5171C910A0EBC10170
:100DE000014A117010BD000074000020B0024142A1
:100DF000808241421002002010B5044607230122E0
:100E000021460848FFF7F0FC0648FFF749FD00BF00
:100E100002210448FFF7B4FC0028F9D00148FFF78D
:100E2000ABFC10BD0022014000BFFEE71CB5012154
:100E3000482000F0D3FB01208DF8040000208DF83D
:100E4000060001208DF8070002208DF8050004201F
:100E5000009069460C48FFF70DFF4FF400400090EA
:100E600069460A48FFF706FF4FF480400090694644
:100E70000648FFF7FFFE4FF4005000906946034814
:100E8000FFF7F8FE1CBD000000180240000C0240F5
:100E900010B5FE2021490870EF20487020482149F4
:100EA000097810F821001D4988700320C870FF20C0
:100EB00008711720487100208871C8710872487243
:100EC00055208872AA20C87216480078401C15491F
:100ED000087008460078082801DB0020087001200F
:100EE00011490860002240F22551104801F007FE28
:100EF000012240F226610D4801F001FE4FF0C05181
:100F00000B48FFF7C7FD20B14FF0C0510848FFF76D
:100F1000CFFC0C210648FFF79DFD10BD000100200D
:100F20007800002075000020BC02404200480040CC
:100F30005860024000BFFEE77047000070B5002116
:100F400000230F22C4781CB3174C246804F4E06417
:100F5000C4F5E064C4F30721C1F10404E3B20A411B
:100F600044789C40E1B28478144021430C07210E60
:100F70000E4C05786155047804F01F050124AC403F
:100F800005786D11AD0005F1E025C5F8004109E0D7
:100F9000047804F01F050124AC40054D0678761155
:100FA00045F8264070BD00000CED00E000E400E0D4
:100FB00080E100E002490143024A116070470000ED
:100FC0000000FA050CED00E01CB50121022000F044
:100FD00005FB4FF44070009001208DF804000020C4
:100FE0008DF8060001208DF8070002208DF805001D
:100FF00069460548FFF73EFE0120044908600449A0
:10100000C1F8A0021CBD000000040240A4824042BE
:10101000008040422DE9F84306468846002500201E
:10102000009000270024F07803287DD1B078FE28B6
:101030004DD1A7488088A7490880A5488079887045
:10104000A348C079C870A248007A0871A048407AC5
:101050004871A1480088C8809F48408808819E4800
:10106000808848819C48C08888819B480089C881C5
:101070009948408908829848808948829648C08962
:1010800088829548008AC8829348408A088392489B
:10109000808A48839048C08A88838F48008BC883A1
:1010A0008D48408B08847079062101EB4000C5B261
:1010B00045F2AA5000909DF80100864948559DF8D8
:1010C0000010844A681C1154A81CC5B2EEE0002729
:1010D00008E0B0780121B940084008B13C4603E07F
:1010E000781CC7B2082FF4DB00BF794880887949A3
:1010F00008807748807988707548C079C8707448CE
:10110000007A08717248407A487104EB44007349D0
:1011100001EB001000786F49C88004EB44006F4970
:1011200001EB0010408800E0CEE06A49088104EB42
:1011300044006A4901EB001080886649488104EB4D
:101140004400664901EB0010C0886249888104EBC5
:101150004400624901EB001000895E49C88104EB3C
:1011600044005E4901EB001040895A49088204EBB3
:1011700044005A4901EB001080895649488204EB2B
:101180004400564901EB0010C0895249888204EBA3
:101190004400524901EB0010008A4E49C88204EB1A
:1011A00044004E4901EB0010408A4A49088304EB91
:1011B00044004A4901EB0010808A4649488304EB09
:1011C0004400464901EB0010C08A4249888304EB81
:1011D0004400424901EB0010008B3E49C88304EBF8
:1011E00044003E4901EB0010408B3A49088404EB6F
:1011F00044003A4901EB0010808B3649488404EBE7
:101200004400364901EB0010C08B3249888404EB5E
:101210004400324901EB001090F822002D49C884A7
:1012200004EB44002D4901EB0010808C294908850E
:1012300004EB4400294901EB0010C08C2549488586
:1012400004EB4400254901EB001090F828002149E7
:10125000888504EB4400214901EB001090F8290037
:101260001C49C88504EB44001C4901EB0010408D6B
:101270001849088604EB4400184901EB001090F867
:101280002C00144948867079062101EB4000C5B254
:1012900045F2AA5000909DF801000E4948559DF86E
:1012A00000100C4A681C1154A81CC5B20C490D480A
:1012B000FFF7F0FB18B10A490A48FFF7F9FA294687
:1012C0000848FFF7C7FB00E000BFBDE8F883000057
:1012D000FC0100209C000020500200206C02002035
:1012E00000002020A0600240704700001CB50121D2
:1012F000222000F073F90220009003208DF80400F2
:1013000000208DF8070069460448FFF7B3FC082069
:10131000009069460248FFF7ADFC1CBD0004024086
:101320000014024010B5FFF7E1FF00F001F810BD16
:1013300000B599B00121880500F050F92F480B90B5
:101340002F480C9000200D9001200E9000200F904F
:1013500010904FF400601190800012904011139093
:101360004002149000201590012016900020179044
:1013700018900A900AA92348FFF7AEFB01212148E3
:10138000FFF7B0FA0121080200F048F900200490AC
:101390008DF8140001208DF81500002006900890AB
:1013A00001208DF8240004A914484C38FFF7F2F905
:1013B00000200090019002904FF470600390684606
:1013C000FFF7ACF90323012209210C484C38FFF741
:1013D0000BFA012109484C38FFF7C3F901210748EE
:1013E0004C38FFF7B3F9012104484C38FFF78AF96C
:1013F00002484C38FFF754FA19B000BD4C200140A8
:1014000072000020106402401CB50121DD2000F0B4
:10141000E5F801208DF8040000208DF80600012079
:101420008DF8070002208DF8050010200090694615
:101430006348FFF71FFC4FF4007000906946614855
:10144000FFF718FC4FF48070009069465E48FFF784
:1014500011FC8020009069465C48FFF70BFC40209F
:10146000009069465948FFF705FC20200090694626
:101470005648FFF7FFFB4FF48070009069465348D1
:10148000FFF7F8FB4FF4C060009069464E48FFF745
:10149000F1FB4FF48050009069464D48FFF7EAFB9E
:1014A0004FF4F850009069464A48FFF7E3FB4FF4C9
:1014B0000040009069464848FFF7DCFB2020009080
:1014C00069464348FFF7D6FB08200090694640482C
:1014D000FFF7D0FB0420009069463D48FFF7CAFBA8
:1014E0001020009069463A48FFF7C4FB02200090A4
:1014F00069463348FFF7BEFB00208DF80400012049
:101500008DF8070003208DF805004FF4005000907F
:1015100069462F48FFF7AEFB4020009069462C48F3
:10152000FFF7A8FB4FF48070009069462848FFF74A
:10153000A1FB4FF48060009069462548FFF79AFBB5
:101540004FF40060009069462148FFF793FB0020AC
:101550008DF8040002208DF8070003208DF80500A7
:101560008020009069461A48FFF784FB4FF4007012
:10157000009069461648FFF77DFB01200090694600
:101580001248FFF777FB0220009069460F48FFF7EB
:1015900071FB4FF40060009069460948FFF76AFB51
:1015A0004FF48050009069460548FFF763FB4FF405
:1015B0008070009069460248FFF75CFB1CBD00008C
:1015C00000100240000802400000024000180240E3
:1015D000001C0240000C02400014024029B1064ADF
:1015E00012680243044B1A6004E0034A1268824303
:1015F000014B1A60704700003038024029B1064A9A
:1016000012680243044B1A6004E0034A12688243E2
:10161000014B1A60704700004038024029B1064A69
:1016200012680243044B1A6004E0034A12688243C2
:10163000014B1A60704700004438024029B1064A45
:1016400012680243044B1A6004E0034A12688243A2
:10165000014B1A607047000024380240F0B50021A9
:1016600000220024022500260223324F3F6807F0A3
:101670000C0121B1042905D0082937D105E02E4FEE
:10168000076036E02D4F076033E02A4F3F1F3F6869
:10169000C7F38056274F3F1F3F6807F03F036EB1E7
:1016A000264FB7FBF3F7DFF88CC0ACF1040CDCF885
:1016B00000C0CCF3881C07FB0CF40CE01E4FB7FBFA
:1016C000F3F7DFF870C0ACF1040CDCF800C0CCF329
:1016D000881C07FB0CF4174F3F1F3F68C7F30147F7
:1016E0007F1C7D00B4FBF5F7076002E0124F076036
:1016F00000BF00BF0F4F3F6807F0F0010909104F0E
:101700007A5C0768D74047600A4F3F6807F4E051AA
:10171000890A0B4F7A5C4768D7408760054F3F685E
:1017200007F46041490B064F7A5C4768D740C760B1
:10173000F0BD0000083802400024F40040787D012C
:101740000000002000B597B001210820FFF746FFF8
:1017500001214804FFF752FF01214805FFF73EFF32
:1017600000208DF85A0001208DF85B0002208DF8D2
:1017700059008DF858002020159015A93B48FFF717
:1017800079FA02208DF858004020159015A93748A5
:10179000FFF770FA072206213448FFF7B3FA072251
:1017A00005213248FFF7AEFA4FF4E13011900020E6
:1017B000ADF84800ADF84A00ADF84C00ADF8500067
:1017C0000C20ADF84E0011A9294801F0BDF9012106
:1017D000274801F048F9012240F22551244801F040
:1017E0008EF926208DF8400001208DF841008DF8FB
:1017F00042008DF8430010A8FFF7A0FB1D48FFF73B
:101800007DF800BF1B48FFF73BF90028FAD14FF0E5
:10181000006001901648001D029017480390402078
:1018200004900F200590002006904FF480600790F0
:101830000020089009900A904FF480300B9000200F
:101840000C9003200D9000200E900F9001A90948E4
:10185000FFF742F901210748FFF744F800BF0548A8
:10186000FFF70EF90128FAD117B000BD000C0240B5
:1018700000440040A06002409C00002000B597B0EA
:1018800001210420FFF7AAFE01218804FFF7B6FE1C
:1018900001214805FFF7A2FE01210846FFF79EFE41
:1018A00000208DF85A0001208DF85B0002208DF891
:1018B000590001208DF85800C003159015A945481E
:1018C000FFF7D8F902208DF858004002159015A9AD
:1018D0004148FFF7CFF902208DF85800800215909B
:1018E00015A93D48FFF7C6F907220B213A48FFF733
:1018F00009FA07220A213848FFF704FA4FF4E130C9
:1019000011900020ADF84800ADF84A00ADF84C0049
:10191000ADF850000C20ADF84E0011A92F4801F091
:1019200013F901212D4801F09EF8012240F22551C2
:101930002A4801F0E4F8002240F22661274801F02D
:10194000DEF827208DF8400001208DF841008DF849
:1019500042008DF8430010A8FFF7F0FA2048FEF788
:10196000CDFF00BF1E48FFF78BF80028FAD14FF0DB
:10197000006001901948001D02901A480390402011
:1019800004900F200590002006904FF4806007908F
:101990000020089009900A904FF480300B900020AE
:1019A0000C9003200D9000200E900F9001A90C4880
:1019B000FFF792F801210A48FEF794FF00BF08489C
:1019C000FFF75EF80128FAD100200749086017B038
:1019D00000BD000000000240000802400048004036
:1019E0005860024000010020BC0240422DE9F0474F
:1019F0002DED108B04460D4617469946C4F30D0491
:101A0000C5F30B0540F67D70844203DDA4F67D70BE
:101A100084B200E0002405FB05F0FEF76BFD41EC0D
:101A20001C0B9FED380B53EC102BFEF782FC41ECA6
:101A30001B0B9FED360B53EC102BFEF7ECFC41EC2F
:101A4000190B2846FEF767FD41EC1C0B9FED310B8F
:101A500053EC102BFEF76DFC41EC1B0B9FED2F0B95
:101A600053EC102BFEF75FFC41EC1A0B53EC192BD7
:101A7000FEF759FC41EC180BFEF75AFD804628464C
:101A8000FEF749FD41EC1F0B9FED260B53EC102B8D
:101A9000FEF74FFC41EC1E0B9FED240B53EC102B7B
:101AA000FEF7B9FC41EC1D0B9FED220B53EC102B04
:101AB000FEF798FB41EC1B0BA4F6C410FEF71AFDD1
:101AC00041EC1C0B53EC1B2BFEF733FC41EC190BC8
:101AD0004046FEF720FD41EC1A0B53EC192BFEF7A4
:101AE00081FB41EC180BFEF723FD064642F20F7115
:101AF0008E4200D90E46C9F800603C60BDEC108BE8
:101B0000BDE8F0879A9999999999F93F00000000EA
:101B10000088C3405C8FC2F5285C0D40F6285C8FBE
:101B2000C2956940F168E388B5F8143F00000000F1
:101B3000000059407B14AE47E17A843F10B500F0B5
:101B40005DF801200E49086000200E49C1F88402AA
:101B500000240FE001200A49091D0860022001F05D
:101B6000D1F800200749C1F88402022001F0CAF828
:101B7000601CC4B2092CEDDB00F06CFB10BD000052
:101B800080824242008042421CB501212020FFF7A2
:101B900025FD01208DF8040000208DF806000120AD
:101BA0008DF8070002208DF805000120009069469D
:101BB0000848FFF75FF80220009069460548FFF7E4
:101BC00059F8322001F092F8FFF7B8FF142001F025
:101BD0008DF81CBD001402401CB5012000900020AF
:101BE0008DF804008DF8070003208DF80500694684
:101BF0000148FFF73FF81CBD001402401CB501204E
:101C00008DF8040000208DF8060001208DF80700F3
:101C100002208DF805000120009069460148FFF779
:101C200029F81CBD001402407CB5054600240020A4
:101C300001900026012201A9684600F08DFA204497
:101C4000C4B21CB10124FFF779FF09E0054B064A35
:101C5000BDF800103046FFF7C9FE02480068286052
:101C600020467CBD18000020140000207CB50546ED
:101C70000024002001900026002201A9684600F0FF
:101C80006BFA2044C4B21CB10124FFF757FF09E0EE
:101C9000054B064A3146BDF80000FFF7A7FE034892
:101CA0000068286020467CBD180000201400002039
:101CB0002DE9F0472DED108B04460D461746994649
:101CC000C4F30D04C5F30B0540F67D70844203DDBB
:101CD000A4F67D7084B200E0002405FB05F0FEF759
:101CE00009FC41EC1C0B9FED380B53EC102BFEF75D
:101CF00020FB41EC1B0B9FED360B53EC102BFEF73A
:101D00008AFB41EC190B2846FEF705FC41EC1C0B45
:101D10009FED310B53EC102BFEF70BFB41EC1B0B33
:101D20009FED2F0B53EC102BFEF7FDFA41EC1A0B35
:101D300053EC192BFEF7F7FA41EC180BFEF7F8FB02
:101D400080462846FEF7E7FB41EC1F0B9FED260B74
:101D500053EC102BFEF7EDFA41EC1E0B9FED240B1C
:101D600053EC102BFEF757FB41EC1D0B9FED220BA4
:101D700053EC102BFEF736FA41EC1B0BA4F6C41003
:101D8000FEF7B8FB41EC1C0B53EC1B2BFEF7D1FA12
:101D900041EC190B4046FEF7BEFB41EC1A0B53EC2D
:101DA000192BFEF71FFA41EC180BFEF7C1FB064694
:101DB00042F20F718E4200D90E46C9F800603C60B5
:101DC000BDEC108BBDE8F0879A9999999999F93FE4
:101DD000000000000088C3405C8FC2F5285C0D4005
:101DE000F6285C8FC2956940F168E388B5F8143F26
:101DF00000000000000059407B14AE47E17A843FA8
:101E000010B500F05DF801200E49086000200E4971
:101E1000C1F8980200240FE001200A49091F086058
:101E2000022000F06FFF00200749C1F8980202204D
:101E300000F068FF601CC4B2092CEDDB00F018F95B
:101E400010BD00009C824042008040421CB5012130
:101E50000220FFF7C3FB01208DF8040000208DF85D
:101E6000060001208DF8070002208DF80500802073
:101E7000009069460848FEF7FDFE40200090694644
:101E80000548FEF7F7FE322000F030FFFFF7B8FFFD
:101E9000142000F02BFF1CBD000402401CB5802064
:101EA000009000208DF804008DF8070003208DF8C5
:101EB000050069460148FEF7DDFE1CBD0004024036
:101EC0001CB501208DF8040000208DF806000120CB
:101ED0008DF8070002208DF80500802000906946EB
:101EE0000148FEF7C7FE1CBD000402407CB5054654
:101EF0000024002001900026012201A9684600F07C
:101F000039F82044C4B21CB10124FFF779FF09E07D
:101F1000054B064ABDF800103046FFF7C9FE0248DF
:101F20000068286020467CBD200000201C000020A6
:101F30007CB505460024002001900026002201A95E
:101F4000684600F017F82044C4B21CB10124FFF722
:101F500057FF09E0054B064A3146BDF80000FFF780
:101F6000A7FE03480068286020467CBD20000020B2
:101F70001C0000202DE9F04705460E4617460024B8
:101F8000A046A14600F074F817B1012F0CD105E06E
:101F9000032000F0A3F82044C4B206E0052000F0BE
:101FA0009DF82044C4B200E000BF00BFFFF776FFF9
:101FB0004FF4A07000F09AFE0B480068012801D190
:101FC000601CC4B2012000F011F88046012000F02E
:101FD0000DF88146002000F009F8307049EA082029
:101FE00028802046BDE8F0871C82404270B5054637
:101FF0000026FFF753FF802415E0022000F082FE48
:10200000012019490860022000F07CFE1748D0F832
:102010001C0200B12643002013490860204604EB4F
:10202000D071C1F34704002CE7DCFFF749FF25B16D
:1020300000200D49091D086003E001200A49091D1F
:102040000860022000F05EFE0120074908600220BF
:1020500000F058FE00200549C1F89802022000F067
:1020600051FE304670BD00009882404200804042E0
:1020700010B5FFF725FF012016490860002016491A
:10208000C1F89802022000F03DFE01201149091F0D
:10209000086000F037FE00200F49C1F89C020120C3
:1020A00000F030FE00200B49091F0860022000F0FC
:1020B00029FE01200849C1F8980200F023FE012002
:1020C0000549C1F89C0200F01DFE00200249C1F83C
:1020D000980210BD9C8240420080404270B5054687
:1020E0000026FFF7EDFE80241BE004EA050018B18E
:1020F00001201749086002E000201549086002200D
:1021000000F000FE01201249091F0860022000F0C3
:10211000F9FD00200F49C1F89802022000F0F2FDFD
:102120006408002CE1D1012009490860FFF7B6FEE0
:1021300001200849C1F89802022000F0E3FD04489C
:102140008038066800200349C1F89802F0B270BDDB
:102150009C824042008040422DE9F04705460E46F1
:1021600017460024A046A14600F074F817B1012FCD
:102170000CD105E0032000F0A3F82044C4B206E02F
:10218000052000F09DF82044C4B200E000BF00BF6D
:10219000FFF722FD4FF4A07000F0A8FD0B48006887
:1021A000012801D1601CC4B2012000F011F8804662
:1021B000012000F00DF88146002000F009F8307091
:1021C00049EA082028802046BDE8F0870082424284
:1021D00070B505460026FFF7FFFC802415E00220BD
:1021E00000F090FD012019490860022000F08AFDEE
:1021F0001748D0F8000200B12643002013490860B8
:10220000204604EBD071C1F34704002CE7DCFFF754
:10221000F5FC25B100200D49091F086003E00120ED
:102220000A49091F0860022000F06CFD01200749DF
:102230000860022000F066FD00200549C1F8840214
:10224000022000F05FFD304670BD000084824242F3
:102250000080424210B5FFF7D1FC0120164908600A
:1022600000201649C1F88402022000F04BFD012035
:102270001149091D086000F045FD00200F49C1F813
:102280008002012000F03EFD00200B49091D08607E
:10229000022000F037FD01200849C1F8840200F057
:1022A00031FD01200549C1F8800200F02BFD00201E
:1022B0000249C1F8840210BD80824242008042423D
:1022C00070B505460026FFF799FC80241BE004EA60
:1022D000050018B101201749086002E000201549E7
:1022E0000860022000F00EFD01201249091D08605F
:1022F000022000F007FD00200F49C1F884020220EF
:1023000000F000FD6408002CE1D1012009490860BB
:10231000FFF762FC01200849C1F88402022000F0A6
:10232000F1FC04488038066800200349C1F88402A3
:10233000F0B270BD8082424200804242704700008D
:1023400030B500228B071C0F0F2303FA04F20B4B4E
:102350008C1053F824309343084C8D1044F82530EA
:1023600023468C1053F824308C07240F00FA04F411
:102370002343024C8D1044F8253030BD083801400D
:102380002DE9F041002600240027002523E06420E9
:1023900000F0ACFC1A480068012809D1194800680F
:1023A000012802D1781CC7B20BE0601CC4B208E05F
:1023B00014480068012802D1701CC6B201E0601CFC
:1023C000C4B21148006808B9012000E000200E499D
:1023D0000860681CC5B20A2DD9DB012F03DD02207D
:1023E0000A4948800AE0012E03DD012007494880A0
:1023F00004E0082C02DD002004494880BDE8F0819B
:102400003002424204024342B8824142500200205C
:102410000CB50020019000904348006840F48030E3
:102420004149086000BF4048006800F40030009057
:102430000198401C0190009818B90198B0F5A04F80
:10244000F1D13948006800F4003010B1012000904B
:1024500001E0002000900098012861D1324840300E
:10246000006840F080503049403108602F480068D3
:1024700040F440402D4908602B48083000682A4944
:10248000083108600846006840F4004008600846CB
:10249000006840F4A05008602548091F0860081F24
:1024A000006840F08070091F086000BF1E48006887
:1024B00000F000700028F9D01C48006840F480301B
:1024C0001A49086000BF1948406800F480300028AD
:1024D000F9D01648006840F400301449086000BF85
:1024E0001248406800F400300028F9D040F205702E
:1024F000104908600C480830006820F003000A49C1
:10250000083108600846006840F00200086000BF1B
:1025100005480830006800F00C000828F8D101E0F8
:1025200000BFFEE70CBD0000003802400070004014
:10253000195A4007003C0240042808D14FF0E0211E
:10254000096941F004014FF0E022116107E04FF00A
:10255000E021096921F004014FF0E0221161704788
:102560007047000010B51548006840F4700013492A
:1025700008601348006840F001001149086000201D
:102580000F49083108600E4800680E4908400C49A0
:1025900008600D48091D0860081F006820F48020AD
:1025A000091F0860002006490C310860FFF730FF62
:1025B0004FF0006001498039086010BD88ED00E0EF
:1025C00000380240FFFFF6FE1030002410B5002452
:1025D0000121274800F065F8002848D0012124484F
:1025E00000F050F823480068401C22490860224847
:1025F0000078401C2049087008460078252804DD32
:10260000FEF746FC00201C49087000242BE004EB78
:1026100044001A4901EB8000408810B304EB4400E9
:1026200001EB80004088401E04EB4401134A02EB9A
:102630008101488004EB4400114601EB8000408892
:1026400078B9012004EB440102F8210004EB4400B6
:10265000114601EB8000808804EB440102EB81010C
:102660004880601CC4B2064800688442CFD310BDC5
:1026700000040040300000207000002038000020DE
:1026800068000020CA430282704721B1028842F0EC
:102690000102028004E002884FF6FE731A400280B5
:1026A000704730B50246002000230024158A05EA51
:1026B0000103958905EA010413B10CB1012000E082
:1026C000002030BD1AB183890B43838102E08389E6
:1026D0008B4383817047000000220288184B984288
:1026E0000ED0184B98420BD0B0F1804F08D0164B4B
:1026F000984205D0154B984202D0154B984204D110
:102700004FF68F731A404B881A43124B984207D0EA
:10271000114B984204D04FF6FF431A400B891A43DD
:1027200002804B68C3620B880385054B984202D038
:10273000044B984201D18B7A038601238382704730
:102740000000014000040140000400400008004077
:10275000000C004000100040001400407FB504460B
:102760000D4601210220FEF749FFADF80450029406
:102770000020ADF80C00ADF8060001A90D48FFF7E8
:10278000ABFF012211460B48FFF79CFF1D208DF87F
:10279000000001208DF8030000208DF801000320C7
:1027A0008DF802006846FEF7C9FB01210148FFF7DA
:1027B0006CFF7FBD0004004010B5002400BF14E092
:1027C00004EB44000B4911F8200060B104EB440114
:1027D000084A02EB810188688047002004EB44012D
:1027E000044A02F82100601CC4B203480068844215
:1027F000E6D310BD38000020680000201CB5012180
:102800002C20FEF7EBFE8020009003208DF80400C2
:1028100000208DF8070069461748FEF72BFA4FF4A1
:102820008070009069461448FEF724FA0420009056
:1028300069461248FEF71EFA01208DF804000020B8
:102840008DF8060001208DF8070002208DF80500A4
:10285000C002009069460948FEF70CFA012000907A
:1028600069460748FEF706FA0220009069460448C8
:10287000FEF700FA1CBD00000014024000080240F0
:10288000000C024010B5FFF7B9FFFDF70BFF10BDBC
:1028900070B50024002540F22551514800F005F99B
:1028A00000287DD040F225514D4800F0CDF84C482D
:1028B00000F0B4F9C4B24B48007818B900204A4976
:1028C00081F86400484890F8641090F86400401C57
:1028D000454A82F86400104644544248007808286B
:1028E0007BD2DFE800F0040522262A2E323B00BF0F
:1028F0003D4890F86400012808D1FE2C03D0002048
:102900003849087002E0012036490870364890F8CE
:102910006400022808D1EF2C03D000203149087050
:1029200002E002202F49087058E003202D4908706A
:1029300054E004202B49087050E005202949087014
:102940004CE006202749087048E0274890F86400CA
:102950000A2802D10720234908703FE0224890F856
:1029600064000C2837D12048C07A1F49897A40EA90
:10297000012545F2AA5085422AD11B4840781A49C0
:10298000097840EA0120174988801748817815485E
:1029900081711548C1781348C1711348017900E06D
:1029A0001DE010480172104841790E4841720E48EE
:1029B000D0F806100B48C1600B48C07A0A49897AE2
:1029C00040EA0121074801820849001DFEF722FB69
:1029D00000200449087001E0FFE700BF00BF70BDA0
:1029E00000440040FC01002096010020500200201D
:1029F00010B540F22551124800F057F820B140F2CE
:102A000025510F4800F020F840F226610C4800F0F4
:102A10004CF898B140F22661094800F015F8002002
:102A200008490860012240F22551054800F067F886
:102A3000002240F22661024800F061F810BD00005B
:102A400000480040BC02404210B50022002340F67E
:102A50006A14A14200D100BF0A1201249440A3B21B
:102A6000DC43048010BD21B1828942F4005282818E
:102A700004E082894DF6FF731A40828170471AB1D3
:102A8000838A0B43838202E0838A8B43838270476D
:102A900002460020B1F5007F00D100BF13880B4033
:102AA0000BB1012000E00020704770B50246002401
:102AB00000230025002040F66A16B14200D100BF75
:102AC000C1F3421501F01F03012606FA03F3012D9D
:102AD00002D19689334006E0022D02D1168A334096
:102AE00001E0968A33400C12012606FA04F4168897
:102AF000344013B10CB1012000E0002070BDF0B5EE
:102B00000346002400260025002040F66A17B9423B
:102B100000D100BF1846C1F3421401F01F0601277F
:102B200007FA06F5012C01D10C3004E0022C01D18A
:102B3000103000E014301AB107682F43076002E03C
:102B40000768AF430760F0BD2DE9FF4705460E4615
:102B50000024A14600BFA046B08900B100BF2C8A66
:102B600024F44054F08804432C82AC8941F20C6078
:102B70008443B08831890843718908430443AC8198
:102B8000AC8A24F44074B0890443AC826846FEF7F2
:102B900065FD2048854202D01F48854202D1DDF8FC
:102BA0000C9001E0DDF80890A88900F4004040B1E5
:102BB00009EBC90000EB091031684900B0FBF1F7DF
:102BC00007E009EBC90000EB091031688900B0FB90
:102BD000F1F76420B7FBF0F004012009642101FB48
:102BE0001078A88900F4004040B1322000EBC80002
:102BF000B0FBF1F000F00700044308E0322000EBE6
:102C000008106421B0FBF1F000F00F0004432C81A8
:102C1000BDE8FF870010014000140140014688888C
:102C2000C0F308007047C1F308028280704700BFFC
:102C3000FEE70000014A024900F013B8512D0008D8
:102C40009800002002E008C8121F08C1002AFAD12B
:102C500070477047002001E001C1121F002AFBD11C
:102C600070472DE9F04116460F460446002503E063
:102C70003946B047641C6D1C20780028F8D12846DE
:102C8000BDE8F0810EB5FDF787FF01218803FEF74F
:102C9000C5FC0E210720FFF753FB4FF48040009046
:102CA00000208DF8040008208DF8050001208DF823
:102CB00006006846FDF794FF28208DF808000020E4
:102CC0008DF8090002208DF80A0001208DF80B0014
:102CD00002A8FEF733F90EBD10B504460420FFF735
:102CE0002BFC0148047010BD1000002030B50446D4
:102CF000002504E04FF47A7000F004F86D1CA54242
:102D0000F8D330BD0146114A12784A434FF0E02310
:102D10005A6100229A611A46126942F001021A6150
:102D200000BF4FF0E022106900F001021AB100F478
:102D30008032002AF5D04FF0E022126922F0010221
:102D40004FF0E0231A6100229A61704710000020C2
:102D500070B504460D46E1B20548FFF764FF00BFB9
:102D600080210348FFF794FE0028F9D0204670BD6B
:102D700000440040B420FFF7AFFF4FF4C060FEF7FF
:102D800019F9FEF753F8FEF7DDFCFEF777FDFEF7C5
:102D90003BFBFFF7F5FA40F2E7315920FFF7DEFC85
:102DA000FFF770FF01201A4908601A49C1F8840230
:102DB000FEF7B8FAFFF766FDFFF748F8FEF7E4FE06
:102DC000FEF702F9012280211348FFF758FE012285
:102DD00080211248FFF753FE01201149087002209C
:102DE00081F83000042081F86000082081F890000C
:102DF000102081F8C000202081F8F000402081F8E8
:102E00002001802081F8500101E0FFF7D5FCFCE7AC
:102E1000908243420000424200440040004800408B
:102E20006C02002038B50024002000903D48008846
:102E300000F4805010B13CA0FFF7FCFE3948008838
:102E400000F4005010B13DA0FFF7F4FE35480088B3
:102E500000F4804010B13DA0FFF7ECFE002403E039
:102E6000FDF774FF601CC4B2082CF9DB3B48007806
:102E7000052849D2DFE800F003101D2A3700684614
:102E8000FEF7F4FE10B936490098C8803348007840
:102E9000401C324908703BE06846FEF7C5FE10B999
:102EA0002F49009808812D480078401C2B49087054
:102EB0002EE06846FFF73CF810B929490098488190
:102EC00026480078401C2549087021E06846FFF735
:102ED0000DF810B922490098888120480078401CDC
:102EE0001E49087014E00C20FDF786FF1C49C882BB
:102EF0001C48808908831B4800884883174800784D
:102F0000401C1649087003E000201449087000BFF7
:102F100000BF1548006808B9012000E000201249F0
:102F2000086038BD2C0000204552524F525F494E78
:102F30005445524C4F434B41200D0A004552524FCD
:102F4000525F514248200D0A000000004552524F86
:102F5000525F455F53544F50200D0A006F00002010
:102F60005002002010020020B482414259480068FB
:102F700060B9594800780A2804DA57480078401C9C
:102F8000554908700020554908700BE053480078F7
:102F90000A2804DA51480078401C50490870002083
:102FA0004D4908704D48007802280CDD4B480078E8
:102FB0000A2808DA0A20494908704948006840F0A0
:102FC0000100474908604648007800F001000028E9
:102FD00042D040480068012805D142480078401C92
:102FE0004049087002E000203E4908703D480078E2
:102FF0000A2831DD00203B4908703948006820F07C
:103000000100374908600846007800F0040088B1E4
:103010000846006820F0040008600020324908607B
:103020003249C1F894022B496C3108602F49C1F82C
:103030008C0211E02A48006840F00400284908602A
:103040000120294908602949C1F8940221496C31BD
:1030500008602649C1F88C021E481030006870B91B
:103060001C48001D006850B91A480C30006830B97F
:103070001F48006840F400501D49086005E01C48E6
:10308000006820F400501A490860124808300068AF
:10309000012806D11648006840F4804014490860B1
:1030A00005E01348006820F4804011490860094891
:1030B000001F006830B90E48006840F480500C4989
:1030C000086005E00A48006820F48050084908605C
:1030D000704700001C8243426E0000206D000020FB
:1030E000280000206C000020A002434200804342E0
:1030F0002C000020704770471831000800000020A5
:103100009C000000442C0008B43100089C00002002
:1031100054070000542C00080000000001020304C2
:103120000102030406070809000000000000000077
:10313000000000000000000000000000000000008F
:10314000000000000000000000000000000000007F
:1031500000000A000A0000006D2F00080000840330
:1031600084030000252E0008000032003200000019
:10317000F53000080000E803E8030000F73000081D
:10318000040000000000000000000000000000003B
:103190000100000002000000040000000800000020
:1031A000100000002000000040000000800000002F
:0431B000000000001B
:04000005080001AD41
:00000001FF
