:020000040800F2
:1000000078040020C10100082D050008C104000883
:100010002905000809020008690E00080000000018
:10002000000000000000000000000000510900086E
:10003000E903000800000000A9050008A50A00085F
:10004000DB010008DB010008DB010008DB01000820
:10005000DB010008DB010008DB010008DB01000810
:10006000DB010008DB010008DB010008DB01000800
:10007000DB010008DB010008DB010008DB010008F0
:10008000DB010008DB010008DB010008DB010008E0
:10009000DB010008DB010008DB010008DB010008D0
:1000A000DB010008DB010008DB010008DB010008C0
:1000B000DB010008110B0008DB010008DB01000870
:1000C000DB010008DB010008DB010008DB010008A0
:1000D000DB010008DB010008DB010008DB01000890
:1000E000DB010008DB010008DB010008DB01000880
:1000F000DB010008DB010008DB010008DB01000870
:10010000DB010008DB010008DB010008DB0100085F
:10011000DB010008DB010008DB010008DB0100084F
:10012000DB010008DB010008DB010008DB0100083F
:10013000DB010008DB010008DB010008DB0100082F
:10014000DB010008DB010008DB010008DB0100081F
:10015000DB010008DB010008DB010008DB0100080F
:10016000DB010008DB010008DB010008DB010008FF
:10017000DB010008DB010008DB010008DB010008EF
:10018000DB010008DB010008DB010008DB010008DF
:10019000DB010008DB010008DB010008DB010008CF
:1001A000DB010008DB010008DB010008DFF80CD0F0
:1001B00000F018F800480047F50E00087804002009
:1001C0000648804706480047FEE7FEE7FEE7FEE7F1
:1001D000FEE7FEE7FEE7FEE7FEE7FEE7A90A000806
:1001E000AD010008064C074D06E0E06840F0010351
:1001F00094E8070098471034AC42F6D3FFF7DAFFD3
:10020000FC1000081C11000800BFFEE721B10268C5
:1002100042F00102026003E0026822F00102026083
:1002200070470000016821F00101016000210160B8
:1002300041608160C1600161212141614A49884278
:1002400004D13D21484A103A91608CE0464918316A
:10025000884205D14FF47461434A103A916082E0BC
:1002600041493031884205D14FF474113E4A103A69
:10027000916078E03C494831884205D14FF0746183
:10028000394A103A91606EE037496031884204D1B2
:100290003649354A103AD16065E0334978318842B1
:1002A00004D13349304A103AD1605CE02E49903194
:1002B000884204D12F492C4A103AD16053E02A4990
:1002C000A831884205D14FF03D51274A103AD160FC
:1002D00049E02949884204D13D21274A083A116062
:1002E00041E025491831884205D14FF47461224A12
:1002F000083A116037E020493031884205D14FF487
:1003000074111D4A083A11602DE01B49483188429A
:1003100005D14FF07461184A083A116023E016497C
:100320006031884204D11149134A121F11601AE04A
:1003300011497831884204D10D490F4A121F1160CA
:1003400011E00D499031884204D10A490A4A121F2E
:10035000116008E00849A831884204D14FF03D51AE
:10036000054A121F11607047106002403D000020D6
:10037000400F002000003D20106402400146002094
:100380000A6802F001020AB1012000E00020704773
:1003900010B500220268134B1A40CC680B68234347
:1003A0004C6923438C692343CC6923430C6A234360
:1003B0004C6A23438C6A23434C6B23438C6B23434B
:1003C0001A430260426922F00702D1E90B34234349
:1003D0001A4342610B6943604B6883608B68C3605A
:1003E00010BD00003F801CF07047F0B50A460021A8
:1003F0000023002400BF3DE0012505FA01F3156844
:1004000005EA03049C4234D105684F000326BE4030
:10041000B543056015794E00B54006683543056063
:100420001579012D02D01579022D16D185684F005E
:100430000326BE40B543856055794E00B5408668B9
:1004400035438560456801268E40B5434560456863
:1004500096798E40B6B235434560C5684F00032695
:10046000BE40B543C560D5794E00B540C66835433A
:10047000C560491C1029BFD3F0BDF0B5002300248E
:100480004D07ED0E02FA05F3CE1000F1200555F8E8
:1004900026504E07F70E0F26BE40B543CF1000F191
:1004A000200646F82750CE1000F1200555F82650BA
:1004B00045EA0304CE1000F1200545F82640F0BDC2
:1004C00000BFFEE71CB50121482000F011F9012012
:1004D0008DF8040000208DF8060001208DF807003B
:1004E00002208DF805000420009069460C48FFF7B3
:1004F0007CFF4FF40040009069460A48FFF775FF03
:100500004FF48040009069460648FFF76EFF4FF4B5
:100510000050009069460348FFF767FF1CBD0000CC
:1005200000180240000C024000BFFEE770470000C8
:1005300070B5002100230F22C4781CB3174C246827
:1005400004F4E064C4F5E064C4F30721C1F10404D9
:10055000E3B20A4144789C40E1B2847814402143DC
:100560000C07210E0E4C05786155047804F01F0528
:100570000124AC4005786D11AD0005F1E025C5F80A
:10058000004109E0047804F01F050124AC40054D4A
:100590000678761145F8264070BD00000CED00E0AD
:1005A00000E400E080E100E0704700001CB501219C
:1005B000DD2000F09DF801208DF8040000208DF86A
:1005C000060001208DF8070002208DF8050010209C
:1005D000009069464048FFF708FF4FF40070009014
:1005E00069463E48FFF701FF4FF48070009069466E
:1005F0003B48FFF7FAFE8020009069463948FFF734
:10060000F4FE4020009069463648FFF7EEFE2020B9
:10061000009069463348FFF7E8FE4FF48070009081
:1006200069463048FFF7E1FE4FF4C060009069462C
:100630002B48FFF7DAFE4FF48050009069462A48B5
:10064000FFF7D3FE4FF4F850009069462748FFF7B4
:10065000CCFE00208DF8040001208DF80700032057
:100660008DF805004FF40050009069461E48FFF7D2
:10067000BCFE4020009069461B48FFF7B6FE4FF4D1
:100680008070009069461848FFF7AFFE4FF4806015
:10069000009069461448FFF7A8FE4FF400600090F0
:1006A00069461148FFF7A1FE00208DF804000220E2
:1006B0008DF8070003208DF8050080200090694622
:1006C0000948FFF792FE4FF4007000906946064813
:1006D000FFF78BFE1CBD0000001002400008024026
:1006E0000000024000180240001C0240000C0240C2
:1006F00029B1064A12680243044B1A6004E0034A17
:1007000012688243014B1A60704700003038024083
:1007100029B1064A12680243044B1A6004E0034AF6
:1007200012688243014B1A60704700004038024053
:10073000F0B5002100220024022500260223324FBA
:100740003F6807F00C0121B1042905D0082937D1F1
:1007500005E02E4F076036E02D4F076033E02A4F4B
:100760003F1F3F68C7F38056274F3F1F3F6807F082
:100770003F036EB1264FB7FBF3F7DFF88CC0ACF147
:10078000040CDCF800C0CCF3881C07FB0CF40CE074
:100790001E4FB7FBF3F7DFF870C0ACF1040CDCF8C8
:1007A00000C0CCF3881C07FB0CF4174F3F1F3F68B9
:1007B000C7F301477F1C7D00B4FBF5F7076002E03B
:1007C000124F076000BF00BF0F4F3F6807F0F001F6
:1007D0000909104F7A5C0768D74047600A4F3F68A5
:1007E00007F4E051890A0B4F7A5C4768D74087606D
:1007F000054F3F6807F46041490B064F7A5C476834
:10080000D740C760F0BD0000083802400024F40063
:1008100040787D010000002000B597B0012108203C
:10082000FFF766FF01214804FFF772FF0121480529
:10083000FFF75EFF00208DF85A0001208DF85B0065
:1008400002208DF859008DF858002020159015A928
:100850003B48FFF7CAFD02208DF858004020159054
:1008600015A93748FFF7C1FD072206213448FFF7D5
:1008700004FE072205213248FFF7FFFD4FF4E13067
:1008800011900020ADF84800ADF84A00ADF84C00DA
:10089000ADF850000C20ADF84E0011A9294800F029
:1008A00075FA0121274800F033FA012240F2255160
:1008B000244800F046FA26208DF8400001208DF8EB
:1008C00041008DF842008DF8430010A8FFF730FE7C
:1008D0001D48FFF7A7FC00BF1B48FFF74FFD00288E
:1008E000FAD14FF0006001901648001D02901748A1
:1008F0000390402004900F200590002006904FF4B4
:10090000806007900020089009900A904FF4803092
:100910000B9000200C9003200D9000200E900F9063
:1009200001A90948FFF734FD01210748FFF76EFCD4
:1009300000BF0548FFF722FD0128FAD117B000BD1E
:10094000000C024000440040A06002401100002062
:10095000704700000CB500200190009043480068EB
:1009600040F480304149086000BF4048006800F40E
:10097000003000900198401C0190009818B901982F
:10098000B0F5A04FF1D13948006800F4003010B143
:100990000120009001E0002000900098012861D122
:1009A00032484030006840F08050304940310860A3
:1009B0002F48006840F440402D4908602B4808301B
:1009C00000682A49083108600846006840F4004081
:1009D00008600846006840F4A05008602548091FD8
:1009E0000860081F006840F08070091F086000BFA1
:1009F0001E48006800F000700028F9D01C4800680C
:100A000040F480301A49086000BF1948406800F47B
:100A100080300028F9D01648006840F400301449AE
:100A2000086000BF1248406800F400300028F9D088
:100A300040F20570104908600C480830006820F04A
:100A400003000A49083108600846006840F00200C7
:100A5000086000BF05480830006800F00C00082856
:100A6000F8D101E000BFFEE70CBD000000380240F5
:100A700000700040195A4007003C0240042808D189
:100A80004FF0E021096941F004014FF0E0221161CB
:100A900007E04FF0E021096921F004014FF0E02266
:100AA000116170477047000010B51548006840F4A8
:100AB0007000134908601348006840F001001149B4
:100AC000086000200F49083108600E4800680E4990
:100AD00008400C4908600D48091D0860081F00689F
:100AE00020F48020091F0860002006490C310860AE
:100AF000FFF730FF4FF0006001498039086010BDFA
:100B000088ED00E000380240FFFFF6FE10300024C0
:100B100010B5002401211D4800F04DF8A8B30121B3
:100B20001A4800F039F800BF2BE004EB44001849E4
:100B300001EB8000408810B304EB440001EB80001F
:100B40004088401E04EB4401114A02EB81014880B9
:100B500004EB4400114601EB8000408878B9012085
:100B600004EB440102F8210004EB4400114601EBC0
:100B70008000808804EB440102EB81014880601C06
:100B8000C4B2044800688442CFD310BD00040040C2
:100B90003800002068000020CA430282704721B15B
:100BA000028842F00102028004E002884FF6FE73E0
:100BB0001A400280704730B502460020002300240E
:100BC000158A05EA0103958905EA010413B10CB100
:100BD000012000E0002030BD1AB183890B438381DE
:100BE00002E083898B4383817047000000220288E2
:100BF000184B98420ED0184B98420BD0B0F1804F52
:100C000008D0164B984205D0154B984202D0154B90
:100C1000984204D14FF68F731A404B881A43124BF7
:100C2000984207D0114B984204D04FF6FF431A4028
:100C30000B891A4302804B68C3620B880385054BFE
:100C4000984202D0044B984201D18B7A038601234B
:100C5000838270470000014000040140000400400E
:100C600000080040000C004000100040001400404C
:100C70007FB504460D4601210220FFF749FDADF87E
:100C8000045002940020ADF80C00ADF8060001A954
:100C90000D48FFF7ABFF012211460B48FFF79CFF01
:100CA0001D208DF8000001208DF8030000208DF834
:100CB000010003208DF802006846FFF739FC01218E
:100CC0000148FFF76CFF7FBD0004004010B5002411
:100CD00000BF14E004EB44000B4911F8200060B1A0
:100CE00004EB4401084A02EB810188688047002038
:100CF00004EB4401044A02F82100601CC4B203481A
:100D000000688442E6D310BD38000020680000204F
:100D100021B1828942F40052828104E082894DF639
:100D2000FF731A408281704702460020B1F5007FB0
:100D300000D100BF13880B400BB1012000E0002060
:100D40007047F0B50346002400260025002040F639
:100D50006A17B94200D100BF1846C1F3421401F02E
:100D60001F06012707FA06F5012C01D10C3004E01B
:100D7000022C01D1103000E014301AB107682F4363
:100D8000076002E00768AF430760F0BD2DE9FF4749
:100D900005460E460024A14600BFA046B08900B11A
:100DA00000BF2C8A24F44054F08804432C82AC8980
:100DB00041F20C608443B08831890843718908434B
:100DC0000443AC81AC8A24F44074B0890443AC82FF
:100DD0006846FFF7ADFC2048854202D01F48854297
:100DE00002D1DDF80C9001E0DDF80890A88900F44C
:100DF000004040B109EBC90000EB0910316849001F
:100E0000B0FBF1F707E009EBC90000EB091031680E
:100E10008900B0FBF1F76420B7FBF0F00401200972
:100E2000642101FB1078A88900F4004040B1322011
:100E300000EBC800B0FBF1F000F00700044308E04D
:100E4000322000EB08106421B0FBF1F000F00F003D
:100E500004432C81BDE8FF870010014000140140CD
:100E6000C1F308028280704700BFFEE7014A0249D1
:100E700000F013B8D10E00087000002002E008C88E
:100E8000121F08C1002AFAD170477047002001E004
:100E900001C1121F002AFBD170472DE9F04116460F
:100EA0000F460446002503E03946B047641C6D1C1C
:100EB00020780028F8D12846BDE8F08110B5044616
:100EC0000420FFF7DBFD0148047010BD1000002076
:100ED00070B504460D46E1B20548FFF7C1FF00BFFB
:100EE00080210348FFF720FF0028F9D0204670BD7D
:100EF00000440040B420FFF7E1FFFFF7E3FAFFF7FB
:100F00008BFCFFF753FB40F2E7315920FFF7B0FEAF
:100F100001E0FFF7DBFEFCE74F48006860B94F488F
:100F200000780A2804DA4D480078401C4B490870C4
:100F300000204B4908700BE0494800780A2804DA81
:100F400047480078401C4649087000204349087013
:100F50004348007802280CDD414800780A2808DA66
:100F60000A203F4908703F48006840F001003D49B1
:100F700008603C48007800F0010030B33648006853
:100F8000012805D138480078401C3749087002E034
:100F9000002035490870344800780A281FDD0020F9
:100FA000314908702F48006820F001002D49086081
:100FB0000846007800F0040040B10846006820F0C0
:100FC0000400086000202949086008E025480068FE
:100FD00040F00400234908600120244908601E48AD
:100FE0001030006870B91C48001D006850B91A48DC
:100FF0000C30006830B91E48006840F400501C49AD
:10100000086005E01A48008800F40050184908609C
:10101000114808300068012806D11548006840F4DE
:1010200080401349086005E01148008800F48040C2
:101030000F4908600848001F006830B90C48006874
:1010400040F480500A49086005E00948008800F42F
:1010500080500749086070471C8243426E000020A0
:101060006D000020300000206C000020A0024342F0
:101070003400002010B50C48008800F4805010B1F6
:101080000AA0FFF7F3FE0848008800F4005010B1F2
:101090000BA0FFF7EBFE0448008800F4804010B17D
:1010A0000BA0FFF7E3FE10BD340000204552524F65
:1010B000525F494E5445524C4F434B41200D0A005C
:1010C0004552524F525F514248200D0A0000000025
:1010D0004552524F525F455F53544F50200D0A0006
:1010E000704700000448006808B9012000E00020B3
:1010F0000149086070470000B48241421C11000899
:1011000000000020740000007C0E00089011000810
:1011100074000020040400008C0E00080000000091
:1011200001020304010203040607080900EFFEFFA1
:10113000000000000000000000000000FEEFFFF0D3
:10114000F0F0F0F0F0F000000000000000000000FF
:101150000000000000000A000A000000190F00084B
:101160000000F401F40100007510000800002003E5
:1011700020030000E11000080000E803E80300007D
:10118000E51000080400000000000000000000005E
:04000005080001AD41
:00000001FF
